HHHHHHHHHHHHHHHHHH1168811120181130M0T0000000000000000N00000000000000000000000000000000000000000000000000000000000000000000000000000000000000000000000000000000000000000000000000000000000000000000000000000000000000000000000000000000000000000000000000000000000000000000000000000000000000000000000000000000000000000000000000000000000000000000000000000000000000000000000000000000000000000000000000000000000000000000000000000000000000000000000000000000000000000000000000000000000000000000000000000000000000000000000000000000000000000000000000000000000000000000000000000000000000000000000000000000000000000000000000000000000000000000000000000000000000000000000000000000000000000000000000000000000000000000000000000000000000000000000000000000000000000000000000000000000000000000000000000000000000000000000000
101089747144000000000000000031LAURA XIMENA HERNANDEZ ALVAREZ               0201708012019052600100000000020113020170801022018113000000000072018120300                              12  0003680000700000000005960000000000000000000035000000004581000020002013000000000002017112620171031LA 18 PEREIRA                 PEREIRA             00000001PEREIRA             00000001RISARALDA           NISA 1 BLO 4 APTO 3B                                        000000000000                    00000000                                                                                000000000000PEREIRA             00000001RISARALDA           NISA 1 BLO 4 APTO 3B                                                                                                    003212298410000000000000000000000000                   
100024765954000000000000000031MARTHA CECILIA ALVAREZ HENANO                0201708012019052600100000000020113020170801022018113000000000072018120300                              12  0003680000700000000005960000000000000000000035000000004581000020002013000000000002017112620171031LA 18 PEREIRA                 PEREIRA             00000001PEREIRA             00000001RISARALDA                                                                       000000000000                    00000000                                                                                000000000000PEREIRA             00000001RISARALDA                                                                                                                                   000000000000000000000000000000000000                   
100010088764000000000000000032GUILLERMO LEON CASTRO OSPINA                 0201708012019103000100000000020913020170801022018113000000000072018120300                              12  0003040000210000000002099575000000000000000012000000001386273030000008000000000002018073020180725LA 18 PEREIRA                 PEREIRA             00000001PEREIRA             00000001RISARALDA           CALLE 3E 2 25                                               000000000000                    00000000                                                                                000000000000PEREIRA             00000001RISARALDA           CALLE 3E 2 25                                                                                                           003122078744000000000000000000000000                   
100075096817000000000000000040ORLANDO    OROZCO  CASTAÑEDA                0201708012018060100100000000020913020170801022018113000000000062018120300                              12  0003480000050000000000417333000000000000000006250000001044000012001011000000000002017121620171104LA 18 PEREIRA                 PEREIRA             00000001MANIZALES           00000001CALDAS              CALLE 34  19 153                                            000000000000                    00000000                                                                                000000000000MANIZALES           00000001CALDAS              CALLE 34  19 153                                                                                                        003108811016000000000000000000000000                   
100010115161000000000000000047IVAN  DE JESUS TABARES                       0201708042019021600100000000020901020170804012018113000000000000000000000                              12  0000290000054040000000175391000000000000000004595000000146470020013000000000000002018110120181017LA 18 PEREIRA                 PEREIRA             00000001DOSQUEBRADAS        00000170RISARALDA           CALLE 44 No  18 01                                          000000000000                    00000000                                                                                000000000000DOSQUEBRADAS        00000170RISARALDA           CALLE 44 No  18 01                                                                                                      003193891639000000000000000000000000                   
101088240543000000000000000049JORGE  LUIS  ROMERO  GARCIA                  0201708032018122000100000000020913020170803022018113000000000072018120300                              12  0003670000052550000000499989000000000000000004470000002109760020000020000000000002018022020171019LA 18 PEREIRA                 PEREIRA             00000001PEREIRA             00000001RISARALDA           MANZANA B CASA 10                                           000000000000                    00000000                                                                                000000000000PEREIRA             00000001RISARALDA           MANZANA B CASA 10                                           jorgeluisromero20149@gmail.com                              003206299600000000000000000000000000                   
101088825432000000000000000052ROBINSON  ALEJANDRO GIRALDO  RESTREPO        0201708042018061600100000000020913020170804022018113000000000072018120300                              12  00047000000866460000008664600000000000000000073700000025050000200000200000000000020170816        LA 18 PEREIRA                 PEREIRA             00000001PEREIRA             00000001RISARALDA           CRA 32C No 80 14                                            000000000000                    00000000                                                                                000000000000PEREIRA             00000001RISARALDA           CRA 32C No 80 14                                                                                                        003003566606000000000000000000000000                   
101225089018000000000000000054MICHEL DAVID ZAPATA CORTES                   0201707222018021600100000000020913020170722022018113000000000072018120300                              12  0004390000050680000000401949000000000000000006340000001919240012002010000000000002017091620170911LA 18 PEREIRA                 PEREIRA             00000001PEREIRA             00000001RISARALDA           MANZANA 7 CASA 16                                           000000000000                    00000000                                                                                000000000000PEREIRA             00000001RISARALDA           MANZANA 7 CASA 16                                           michael.70pupi@gmail.com                                    003137213579000000000000000000000000                   
100009865466000000000000000057CARLOS  ALBERTO SALAMANDRA  ARIAS            0201708252018113000100000000021105020170825032018112800000000000000000000                              12  0000000000070000000000000000000000000000000010000000000000000007007000000000000002018103020181128LA 18 PEREIRA                 PEREIRA             00000001DOSQUEBRADAS        00000170RISARALDA           MANAZANA 12 CASA 14                                         000000000000                    00000000                                                                                000000000000DOSQUEBRADAS        00000170RISARALDA           MANAZANA 12 CASA 14                                         csalamandra22@hotmail.com                                   003112942466000000000000000000000000                   
101088273938000000000000000061YEINER  MACHADO  ARAGON                      0201708052018071800100000000021905020170805032018100500000000000000000000                              12  0000000000082132000000000000000000000000000006985000000000000020020000000000000002018071820180718LA 18 PEREIRA                 PEREIRA             00000001PEREIRA             00000001RISARALDA           MANZANA 9 CASA 33                                           000000000000                    00000000                                                                                000000000000PEREIRA             00000001RISARALDA           MANZANA 9 CASA 33                                           mahecho@gmail.com                                           003217594126000000000000000000000000                   
100009867593000000000000000066ROBERTO LONDOÑO  HEREDIA                    0201712012018032000100000000020113020171201022018113000000000072018120300                              12  0002820000300000000002538000000000000000000300000000007287600001000001000000000002018022020180127LA 18 PEREIRA                 PEREIRA             00000001DOSQUEBRADAS        00000170RISARALDA           MZ 12 CASA 101                                              000000000000                    00000000                                                                                000000000000DOSQUEBRADAS        00000170RISARALDA           MZ 12 CASA 101                                              ROBERTMUSICA@HOTMAIL.COM                                    003106688827000000000000000000000000                   
101059785201000000000000000069JULIO  ANDRES TORO AGUIRRE                   0201708112019020100100000000020901020170811012018113000000000000000000000                              12  0000000000042066000000247472000000000000000009115000000000000006002000000000000002018120120181115LA 18 PEREIRA                 PEREIRA             00000001MANIZALES           00000001CALDAS              CALLE 47D No 12C 08                                         000000000000                    00000000                                                                                000000000000MANIZALES           00000001CALDAS              CALLE 47D No 12C 08                                         juliotoroaguirre@gmail.com                                  003105672744000000000000000000000000                   
101053764709000000000000000069JORGE  ALBERTO CALLE  ORTIZ                  0201708112019020100100000000020901020170811012018113000000000000000000000                              12  0000000000042066000000247472000000000000000009115000000000000006002000000000000002018120120181115LA 18 PEREIRA                 PEREIRA             00000001SUPIA               00000777CALDAS                                                                          000000000000                    00000000                                                                                000000000000SUPIA               00000777CALDAS                                                                                                                                      000000000000000000000000000000000000                   
101004994848000000000000000077ANGELA LOZADA  TAMAYO                        0201708092019020200100000000020909020170809022018113000000000062018120300                              12  0001530000052550000000257471000000000000000004470000000515622020010006000000000002018090220180822LA 18 PEREIRA                 PEREIRA             00000001DOSQUEBRADAS        00000170RISARALDA           CRA 27 NO 103B                                              000000000000                    00000000                                                                                000000000000DOSQUEBRADAS        00000170RISARALDA           CRA 27 NO 103B                                                                                                          003226748872000000000000000000000000                   
100042009857000000000000000080CLAUDIA  ANGEL GOMEZ                         0201702012018103000100000000020109020170201022018113000000000000000000000                              12  0001520000100000000000650000000000000000000025000000001130000006002004000000000002018063020180612LA 18 PEREIRA                 PEREIRA             00000001PEREIRA             00000001RISARALDA           KRA 4 CALLE 24 Y 26  MANZANA 2 CASA 16 GALAN                000000000000                    00000000                                                                                000000000000PEREIRA             00000001RISARALDA           KRA 4 CALLE 24 Y 26  MANZANA 2 CASA 16 GALAN                                                                            003108934183000000000000000000000000                   
100034050595000000000000000081MARIA  GLORIA DEVIA DECAÑAS                 0201508012023070200100000000020101020150801012018113000000000000000000000                              12  0000280000600000000005507692000000000000000026000000000311000060004000000000000002018110220181017LA 18 PEREIRA                 PEREIRA             00000001PEREIRA             00000001RISARALDA           MANZANA 17 CASA 20                                          000000000000                    00000000                                                                                000000000000PEREIRA             00000001RISARALDA           MANZANA 17 CASA 20                                                                                                      003117053022000000000000000000000000                   
100042116630000000000000000081GLORIA  ANDREA  CAÑAS  DEVIA                0201508012023070200100000000020101020150801012018113000000000000000000000                              12  0000280000600000000005507692000000000000000026000000000311000060004000000000000002018110220181017LA 18 PEREIRA                 PEREIRA             00000001PEREIRA             00000001RISARALDA                                                                       000000000000                    00000000                                                                                000000000000PEREIRA             00000001RISARALDA                                                                                                                                   000000000000000000000000000000000000                   
100052856949000000000000000082PAOLA ANDREA  CUBIDES QUIBANO                0201708012019063000100000000020108020170801022018113000000000000000000000                              12  0000960000082000000000638206000000000000000010000000000277300010002001000000000002018103020181004LA 18 PEREIRA                 PEREIRA             00000001PEREIRA             00000001RISARALDA           KRA 12 24 88                                                000000000000                    00000000                                                                                000000000000PEREIRA             00000001RISARALDA           KRA 12 24 88                                                                                                            003115290791000000000000000000000000                   
100042122494000000000000000090GLORIA NANCY PATINO CLAVIJO                  0201707082021040600100000000020901020170708012018113000000000000000000000                              12  0000000000320000000003182764000000000000000013925000000000000056000000000000000002018112120181121LA 18 PEREIRA                 PEREIRA             00000001PEREIRA             00000001RISARALDA           TORRE 6 APTO 104                                            000000000000                    00000000                                                                                000000000000PEREIRA             00000001RISARALDA           TORRE 6 APTO 104                                                                                                        003152367509000000000000000000000000                   
101087995226000000000000000090ANDRES FELIPE LONDONO  RODAS                 0201707082021040600100000000020901020170708012018113000000000000000000000                              12  0000000000320000000003182764000000000000000013925000000000000056000000000000000002018112120181121LA 18 PEREIRA                 PEREIRA             00000001PEREIRA             00000001RISARALDA                                                                       000000000000                    00000000                                                                                000000000000PEREIRA             00000001RISARALDA                                                                                                                                   000000000000000000000000000000000000                   
100024944085000000000000000092DORA  SALAZAR  DIAZ                          0201703182019092000100000000020109020170318022018113000000000062018120300                              12  0001320000218600000001883429000000000000000017500000001235800018004005000000000002018072020180711LA 18 PEREIRA                 PEREIRA             00000001PEREIRA             00000001RISARALDA           KRA 36 3618                                                 000000000000                    00000000                                                                                000000000000PEREIRA             00000001RISARALDA           KRA 36 3618                                                                                                             003213543054000000000000000000000000                   
100042096843000000000000000092OLGA  LUCIA  BAHENA MARTINEZ                 0201703182019092000100000000020109020170318022018113000000000062018120300                              12  0001320000218600000001883429000000000000000017500000001235800018004005000000000002018072020180711LA 18 PEREIRA                 PEREIRA             00000001DOSQUEBRADAS        00000170RISARALDA                                                                       000000000000                    00000000                                                                                000000000000DOSQUEBRADAS        00000170RISARALDA                                                                                                                                   000000000000000000000000000000000000                   
100030348957000000000000000099CLAUDIA  BEATRIZ VALLEJO  OSPINA             0201707032020010300100000000020113020170703022018113000000000072018120300                              12  00046800001000000000010000000000000000000000110000000027410000290000160000000000020170803        LA 18 PEREIRA                 PEREIRA             00000001PEREIRA             00000001RISARALDA           AV LAS AMERICAS  100 75 BLOQUE 4 CASA7                      000000000000                    00000000                                                                                000000000000PEREIRA             00000001RISARALDA           AV LAS AMERICAS  100 75 BLOQUE 4 CASA7                      claudia2809@hotmail.es                                      003116102562000000000000000000000000                   
100030349526000000000000000102ADRIANA  PATRICIA  VALLEJO OSPINA            0201706232019032800100000000020113020170623022018113000000000072018120300                              12  00045200000800000000008000000000000000000000120000000028172000180000150000000000020170928        LA 18 PEREIRA                 PEREIRA             00000001PEREIRA             00000001RISARALDA           CONJUNTO LA ITALIA BLOQUE 4 CASA 7 POR MERCASA              000000000000                    00000000                                                                                000000000000PEREIRA             00000001RISARALDA           CONJUNTO LA ITALIA BLOQUE 4 CASA 7 POR MERCASA              adrianaospina915@gmail.com                                  003113589704000000000000000000000000                   
100030348957000000000000000102CLAUDIA  BEATRIZ  VALLEJO  OSPINA            0201706232019032800100000000020113020170623022018113000000000072018120300                              12  00045200000800000000008000000000000000000000120000000028172000180000150000000000020170928        LA 18 PEREIRA                 PEREIRA             00000001PEREIRA             00000001RISARALDA                                                                       000000000000                    00000000                                                                                000000000000PEREIRA             00000001RISARALDA                                                                                                                                   000000000000000000000000000000000000                   
100015930842000000000000000109FREDY  ANTONIO  ORTIZ RODAS                  0201708112019020500100000000020909020170811022018113000000000000000000000                              12  0001350000041100000000274527000000000000000006170000000365025010003003000000000002018102020181009LA 18 PEREIRA                 PEREIRA             00000001SUPIA               00000777CALDAS              CARRERA 7 No  20 49  CASA 149                               000000000000                    00000000                                                                                000000000000SUPIA               00000777CALDAS              CARRERA 7 No  20 49  CASA 149                                                                                           003136533850000000000000000000000000                   
100030404886000000000000000117ELSA  MARIA CASTRILLON  CORREA               0201708112018030100100000000020913020170811022018113000000000072018120300                              12  00045400000650000000006500000000000000000000081250000022630800120000120000000000020170901        LA 18 PEREIRA                 PEREIRA             00000001MANIZALES           00000001CALDAS              CALLE 10 No 32 81                                           000000000000                    00000000                                                                                000000000000MANIZALES           00000001CALDAS              CALLE 10 No 32 81                                           elsa.castri80@gmail.com                                     003206710896000000000000000000000000                   
100024338537000000000000000117DIANA  CAROLINA GOMEZ  BENAVIDEZ             0201708112018030100100000000020913020170811022018113000000000072018120300                              12  00045400000650000000006500000000000000000000081250000022630800120000120000000000020170901        LA 18 PEREIRA                 PEREIRA             00000001MANIZALES           00000001CALDAS                                                                          000000000000                    00000000                                                                                000000000000MANIZALES           00000001CALDAS                                                                                                                                      000000000000000000000000000000000000                   
101053852200000000000000000118VALENTINA HERNANDEZ  AGUIRRE                 0201708182018041600100000000020913020170818022018113000000000072018120300                              12  0003320000043066000000253450000000000000000005385000001543830012005007000000000002018010120171215LA 18 PEREIRA                 PEREIRA             00000001MANIZALES           00000001CALDAS              CALLE 52 No  4B 77                                          000000000000                    00000000                                                                                000000000000MANIZALES           00000001CALDAS              CALLE 52 No  4B 77                                          vhernandez619@misena.edu.co                                 003167231696000000000000000000000000                   
101053839995000000000000000119VERONICA  OCAMPO QUINTERO                    0201708122018040100100000000020913020170812022018113000000000072018120300                              12  0003480000062000000000327000000000000000000007750000001694350012005007000000000002017121620171120LA 18 PEREIRA                 PEREIRA             00000001MANIZALES           00000001CALDAS              CALLE 10B No  33 50                                         000000000000                    00000000                                                                                000000000000MANIZALES           00000001CALDAS              CALLE 10B No  33 50                                         monita_veroniedo@hotmail.com                                003225770895000000000000000000000000                   
101053793279000000000000000120MAICOL ALEXIS ORREGO ARISTIZABAL             0201708102018030100100000000020913020170810022018113000000000072018120300                              12  00045400000650000000006500000000000000000000081250000019398000120000120000000000020170901        LA 18 PEREIRA                 PEREIRA             00000001MANIZALES           00000001CALDAS              CALLE 4F No48I 34                                           000000000000                    00000000                                                                                000000000000MANIZALES           00000001CALDAS              CALLE 4F No48I 34                                           maicolalexis1489@gmail.com                                  003102760784000000000000000000000000                   
100010000451000000000000000124ELIECER  CORREA                              0201708222019021700100000000020113020170822022018113000000000072018120300                              12  0002980000032000000000255920000000000000000005000000000560900008000006000000000002018061720180518LA 18 PEREIRA                 PEREIRA             00000001PEREIRA             00000001RISARALDA           MZ 29  CASA 2 DEPARTAMENTO CUBA                             000000000000                    00000000                                                                                000000000000PEREIRA             00000001RISARALDA           MZ 29  CASA 2 DEPARTAMENTO CUBA                                                                                         003104070122000000000000000000000000                   
100042118531000000000000000124ADRIANA  MARIA  HENAO  GONZALEZ              0201708222019021700100000000020113020170822022018113000000000072018120300                              12  0002980000032000000000255920000000000000000005000000000560900008000006000000000002018061720180518LA 18 PEREIRA                 PEREIRA             00000001PEREIRA             00000001RISARALDA                                                                       000000000000                    00000000                                                                                000000000000PEREIRA             00000001RISARALDA                                                                                                                                   000000000000000000000000000000000000                   
100018615781000000000000000132JOAQUIN  EMILIO CUESTA MORALES               0201708232018080500100000000020913020170823022018113000000000072018120300                              12  0003890000048080000000417320000000000000000004090000001980100020002018000000000002017110520171020LA 18 PEREIRA                 PEREIRA             00000001SANTA ROSA DE CABAL 00000682RISARALDA           CASA 6 LA REINA                                             000000000000                    00000000                                                                                000000000000SANTA ROSA DE CABAL 00000682RISARALDA           CASA 6 LA REINA                                                                                                         003059022958000000000000000000000000                   
100039653495000000000000000141NORA POLO VALENCIA                           0201708252018101500100000000020907020170825022018113000000000000000000000                              12  0000790000054040000000055077000000000000000005990000000167470014012002000000000002018091520180831LA 18 PEREIRA                 PEREIRA             00000001LA VIRGINIA         00000400RISARALDA           CALLE 15 A 11 25                                            000000000000                    00000000                                                                                000000000000LA VIRGINIA         00000400RISARALDA           CALLE 15 A 11 25                                                                                                        003137406009000000000000000000000000                   
101059710239000000000000000145LEANDRA  MANUELA GRISALES  HERNANDEZ         0201708222018093000100000000020909020170822022018113000000000062018120300                              12  0001370000041100000000127163000000000000000006170000000422490010005005000000000002018071520180704LA 18 PEREIRA                 PEREIRA             00000001RIOSUCIO            00000614CALDAS              TUMBA BARRETO SECTOR TRANSMISORES LOS MELCHORES CASA COLOR B000000000000                    00000000                                                                                000000000000RIOSUCIO            00000614CALDAS              TUMBA BARRETO SECTOR TRANSMISORES LOS MELCHORES CASA COLOR B                                                            003177618766000000000000000000000000                   
101088316393000000000000000151JOSE  EDGAR  CAMPO  MORALES                  0201708252018100200100000000020908020170825022018113000000000000000000000                              12  0001040000054040000000066682000000000000000004595000000220400020017003000000000002018081720180803LA 18 PEREIRA                 PEREIRA             00000001PEREIRA             00000001RISARALDA           PLAN VIVIENDA No 14                                         000000000000                    00000000                                                                                000000000000PEREIRA             00000001RISARALDA           PLAN VIVIENDA No 14                                         joselitomarna@hotmail.com                                   003022258810000000000000000000000000                   
100004518724000000000000000156MAURICIO RENDON                              0201708012018011600100000000020909020170801022018113000000000000000000000                              12  0003980000035000000000350000000000000000000007000000000751000004000004000000000002017111620171021LA 18 PEREIRA                 PEREIRA             00000001PEREIRA             00000001RISARALDA           UNIDAD RESIDENSIAL BATARA                                   000000000000                    00000000                                                                                000000000000PEREIRA             00000001RISARALDA           UNIDAD RESIDENSIAL BATARA                                                                                               003023270947000000000000000000000000                   
100009860296000000000000000157JAIME  ALBERTO  ECHEVERRY OSPINA             0201708292018060100100000000020109020170829022018113000000000062018120300                              12  0002730000044040000000168133000000000000000011010000000561820006003003000000000002018030120180202LA 18 PEREIRA                 PEREIRA             00000001DOSQUEBRADAS        00000170RISARALDA           MANZANA 10 CASA 7                                           000000000000                    00000000                                                                                000000000000DOSQUEBRADAS        00000170RISARALDA           MANZANA 10 CASA 7                                                                                                       003156998061000000000000000000000000                   
101088237318000000000000000158NATHALIA  MONTES  MUNERA                     0201708202018081600100000000020913020170820022018113000000000072018120300                              12  0002120000100000000000867396000000000000000020000000001602834008001007000000000002018050120180417LA 18 PEREIRA                 PEREIRA             00000001PEREIRA             00000001RISARALDA           CENTRO COMERCIAL VICTORA LOCAL 209                          000000000000                    00000000                                                                                000000000000PEREIRA             00000001RISARALDA           CENTRO COMERCIAL VICTORA LOCAL 209                          natica200@hotmail.com                                       003178700503000000000000000000000000                   
100010002415000000000000000159GERARDO  ARNOBER  BUENO  BUENO               0201708292019110200100000000020108020170829022018113000000000000000000000                              12  0001190000088527500000703789000000000000000008115000000471750018003004000000000002018080220180707LA 18 PEREIRA                 PEREIRA             00000001PEREIRA             00000001RISARALDA           MZ 37 CASA 18                                               000000000000                    00000000                                                                                000000000000PEREIRA             00000001RISARALDA           MZ 37 CASA 18                                                                                                           003108815463000000000000000000000000                   
100042112490000000000000000159RUTH  ASTRID  VASQUEZ  VARGAS                0201708292019110200100000000020108020170829022018113000000000000000000000                              12  0001190000088527500000703789000000000000000008115000000471750018003004000000000002018080220180707LA 18 PEREIRA                 PEREIRA             00000001PEREIRA             00000001RISARALDA                                                                       000000000000                    00000000                                                                                000000000000PEREIRA             00000001RISARALDA                                                                                                                                   000000000000000000000000000000000000                   
100015929516000000000000000161JHON  FREDY GONZALEZ  ARIAS                  0201708282019021800100000000020907020170828022018113000000000000000000000                              12  0000870000052580000000273839000000000000000004470000000376800020009006000000000002018090320180821LA 18 PEREIRA                 PEREIRA             00000001SUPIA               00000777CALDAS              VEREDA LA AMALIA CERCA A LA ESCUELA CASA COLOR AZUL VENTANAS000000000000                    00000000                                                                                000000000000SUPIA               00000777CALDAS              VEREDA LA AMALIA CERCA A LA ESCUELA CASA COLOR AZUL VENTANAS                                                            003017513285000000000000000000000000                   
100010004690000000000000000177JUAN FELIPE LONDOÑO LOPEZ                   0201708282018122800100000000020101020170828012018113000000000000000000000                              12  0000020000042106000000020229000000000000000007160000000000000010009000000000000002018112820181119LA 18 PEREIRA                 PEREIRA             00000001PEREIRA             00000001RISARALDA           MANZANA 49 CASA 9                                           000000000000                    00000000                                                                                000000000000PEREIRA             00000001RISARALDA           MANZANA 49 CASA 9                                           juancho2274@hotmail.com                                     003013719467000000000000000000000000                   
100039664277000000000000000182CONSUELO DE LOS ANGELES BETANCOURT VARGAS    0201708302019070300100000000020101020170830012018113000000000000000000000                              12  0000000000053856000000332549000000000000000009160000000000000010003000000000000002018070320181121LA 18 PEREIRA                 PEREIRA             00000001PEREIRA             00000001RISARALDA           VIA CONFAMILIAR SENDEROS DEL CAMPO MANZANA 4 CASA 7         000000000000                    00000000                                                                                000000000000PEREIRA             00000001RISARALDA           VIA CONFAMILIAR SENDEROS DEL CAMPO MANZANA 4 CASA 7         coni6750@yahoo.com.mx                                       003143432465000000000000000000000000                   
101088351224000000000000000189SANTIAGO CASTAÑO  VELASQUEZ                 0201709042019040300100000000020109020170904022018113000000000062018120300                              12  0001440000042165000000263870000000000000000007170000000436472010003003000000000002018090320180830LA 18 PEREIRA                 PEREIRA             00000001PEREIRA             00000001RISARALDA           CRA 2 No  45 69                                             000000000000                    00000000                                                                                000000000000PEREIRA             00000001RISARALDA           CRA 2 No  45 69                                                                                                         003175430603000000000000000000000000                   
101088332285000000000000000195MICHAEL ATEHORTUA AGUDELO                    0201709072018120500100000000020106020170907022018113000000000000000000000                              12  0000560000054090000000101794000000000000000011980000000216820007005002000000000002018100520180904LA 18 PEREIRA                 PEREIRA             00000001PEREIRA             00000001RISARALDA           AV SUR CALLE 28 CASA 188                                    000000000000                    00000000                                                                                000000000000PEREIRA             00000001RISARALDA           AV SUR CALLE 28 CASA 188                                    michael.atehortua@ucp.edu.co                                003107858404000000000000000000000000                   
101088333586000000000000000196ROBINSON ANDRES GARCIA CASTAÑEDA            0201709062018111500100000000020907020170906022018113000000000000000000000                              12  0000750000044095000000133784000000000000000006615000000278700010006004000000000002018091520180912LA 18 PEREIRA                 PEREIRA             00000001PEREIRA             00000001RISARALDA           VEREDA LA ESTRELLA POR LA UNIVERSIDAD UTP CASA AZUL CON CAFE000000000000                    00000000                                                                                000000000000PEREIRA             00000001RISARALDA           VEREDA LA ESTRELLA POR LA UNIVERSIDAD UTP CASA AZUL CON CAFE                                                            003124779631000000000000000000000000                   
100015931052000000000000000200HELMER DE JESUS REYES LARGO                  0201709022019020200100000000020909020170902022018113000000000000000000000                              12  0002740000052580000000296717000000000000000007900000000547520010004002000000000002018110220181019LA 18 PEREIRA                 PEREIRA             00000001SUPIA               00000777CALDAS              SECTOR LA GRANATAL CASA COLOR ADOBE                         000000000000                    00000000                                                                                000000000000SUPIA               00000777CALDAS              SECTOR LA GRANATAL CASA COLOR ADOBE                                                                                     003217756577000000000000000000000000                   
100016766770000000000000000200GUILLERMO ANTONIO TABARES GOMEZ              0201709022019020200100000000020909020170902022018113000000000000000000000                              12  0002740000052580000000296717000000000000000007900000000547520010004002000000000002018110220181019LA 18 PEREIRA                 PEREIRA             00000001SUPIA               00000777CALDAS                                                                          000000000000                    00000000                                                                                000000000000SUPIA               00000777CALDAS                                                                                                                                      000000000000000000000000000000000000                   
109008862139000000000000000208CONSTRUCASTRO SAS                            0201608192016101800100000000020109020160819022018113000000000000000000000                              12  00044300002000000000020000000000000000000002000000000033110000010000010000000000020160918        LA 18 PEREIRA                 PEREIRA             00000001PEREIRA             00000001RISARALDA           CALLE 23 7 69 OF 204                                        000000000000                    00000000                                                                                000000000000PEREIRA             00000001RISARALDA           CALLE 23 7 69 OF 204                                                                                                    003127499981000000000000000000000000                   
209009674172000000000000000209INFRAESTRUCTURA  Y ARQUITECTURA SAS          0201703092018052300100000000020109020170309022018113000000000000000000000                              12  00037500000400000000004000000000000000000000100000000010780000070000070000000000020171023        LA 18 PEREIRA                 PEREIRA             00000001DOSQUEBRADAS        00000170RISARALDA           MANZANA 16 CASA 44                                          000000000000                    00000000                                                                                000000000000DOSQUEBRADAS        00000170RISARALDA           MANZANA 16 CASA 44                                                                                                      003105160955000000000000000000000000                   
101088314453000000000000000213MARIA  ALEJANDRA CORREA TABORDA              0201709142018080500100000000020113020170914022018113000000000062018120300                              12  0002080000052407600000370230000000000000000022710000001547630003000003000000000002018050520180405LA 18 PEREIRA                 PEREIRA             00000001PEREIRA             00000001RISARALDA           CALLE 31 2 65                                               000000000000                    00000000                                                                                000000000000PEREIRA             00000001RISARALDA           CALLE 31 2 65                                                                                                           003117804490000000000000000000000000                   
101144153113000000000000000214JONATHAN  LISCANO  BOCANEGRA                 0201709132018072000100000000020913020170913022018113000000000072018120300                              12  0003440000057243000000490500000000000000000010000000001718000016002014000000000002017122020171208LA 18 PEREIRA                 PEREIRA             00000001PEREIRA             00000001RISARALDA           CUIDADELA VILLA VERDE  TORRE 1 APTO 407                     000000000000                    00000000                                                                                000000000000PEREIRA             00000001RISARALDA           CUIDADELA VILLA VERDE  TORRE 1 APTO 407                                                                                 003165887408000000000000000000000000                   
100041577364000000000000000214ROSA  MARIA  BOCANEGRA                       0201709132018072000100000000020913020170913022018113000000000072018120300                              12  0003440000057243000000490500000000000000000010000000001718000016002014000000000002017122020171208LA 18 PEREIRA                 PEREIRA             00000001CALI                00000001VALLE DEL CAUCA                                                                 000000000000                    00000000                                                                                000000000000CALI                00000001VALLE DEL CAUCA                                                                                                                             000000000000000000000000000000000000                   
101088262883000000000000000215CRISTHIAN  ANDRES  GIL  PARRA                0201708032017111800100000000020913020170803022018113000000000072018120300                              12  00044100000480000000004800000000000000000000103950000011976500060000060000000000020170818        LA 18 PEREIRA                 PEREIRA             00000001PEREIRA             00000001RISARALDA           CRA 7 34B 48                                                000000000000                    00000000                                                                                000000000000PEREIRA             00000001RISARALDA           CRA 7 34B 48                                                CRSTHIANANDRESGIL@GMAIL.COM                                 003127776327000000000000000000000000                   
100004520680000000000000000216JACKSON  CASTRO GOMEZ                        0201706082019020100100000000020909020170608022018113000000000000000000000                              12  0003360000021540000000215245000000000000000006000000000518570010004002000000000002018110120181017LA 18 PEREIRA                 PEREIRA             00000001PEREIRA             00000001RISARALDA           MZ 12 CASA 10                                               000000000000                    00000000                                                                                000000000000PEREIRA             00000001RISARALDA           MZ 12 CASA 10                                                                                                           003114778621000000000000000000000000                   
100024925550000000000000000218MARIA CELENE MONTOES CASTAÑEDA              0201708132018013000100000000020913020170813022018113000000000072018120300                              12  0004100000027800000000233259000000000000000004800000001578020008001007000000000002017101520171003LA 18 PEREIRA                 PEREIRA             00000001DOSQUEBRADAS        00000170RISARALDA           CASA 106                                                    000000000000                    00000000                                                                                000000000000DOSQUEBRADAS        00000170RISARALDA           CASA 106                                                                                                                003218503350000000000000000000000000                   
100010125172000000000000000219FREDY  HENAO  ZULUAGA                        0201611082017051700100000000020913020161108022018113000000000072018120300                              12  00044100000398800000003988000000000000000000049850000017392000120000120000000000020161117        LA 18 PEREIRA                 PEREIRA             00000001PEREIRA             00000001RISARALDA           CRA 8 2E 63                                                 000000000000                    00000000                                                                                000000000000PEREIRA             00000001RISARALDA           CRA 8 2E 63                                                                                                             003146679916000000000000000000000000                   
100004513555000000000000000225EDINSON ANDRES OQUENDO MOLINA                0201709082018112100100000000020913020170908022018113000000000072018120300                              12  00043400000823000000008230000000000000000000100000000032370000300020280000000000020170921        LA 18 PEREIRA                 PEREIRA             00000001PEREIRA             00000001RISARALDA           K 5 VIA MARSELLA EL PLACER CASA B2                          000000000000                    00000000                                                                                000000000000PEREIRA             00000001RISARALDA           K 5 VIA MARSELLA EL PLACER CASA B2                                                                                      003128057434000000000000000000000000                   
100042131508000000000000000226PAULA  ANDREA  RENTERIA  ESCOBAR             0201709032019031000100000000020106020170903022018113000000000000000000000                              12  0000510000390000000001448571000000000000000035000000000999000014009002000000000002018101020180920LA 18 PEREIRA                 PEREIRA             00000001PEREIRA             00000001RISARALDA           MZ 13 CASA 7                                                000000000000                    00000000                                                                                000000000000PEREIRA             00000001RISARALDA           MZ 13 CASA 7                                                                                                            003106173518000000000000000000000000                   
100042127774000000000000000237PAOLA  MARIA PARRA BETANCURT                 0201709052019020500100000000020101020170905012018113000000000000000000000                              12  0000250000150000000000367835000000000000000021110000000000000012009000000000000002018110520181102LA 18 PEREIRA                 PEREIRA             00000001PEREIRA             00000001RISARALDA           BLOQUE 53 APTO 5331                                         000000000000                    00000000                                                                                000000000000PEREIRA             00000001RISARALDA           BLOQUE 53 APTO 5331                                                                                                     003006429733000000000000000000000000                   
100009873501000000000000000237MAURICIO HORTA  SANCHEZ                      0201709052019020500100000000020101020170905012018113000000000000000000000                              12  0000250000150000000000367835000000000000000021110000000000000012009000000000000002018110520181102LA 18 PEREIRA                 PEREIRA             00000001PEREIRA             00000001RISARALDA                                                                       000000000000                    00000000                                                                                000000000000PEREIRA             00000001RISARALDA                                                                                                                                   000000000000000000000000000000000000                   
101058230658000000000000000245DIEGO  ALEXANDER ECHEVERRY  DIAZ             0201709062018122100100000000020901020170906012018113000000000000000000000                              12  0000000000041100000000052375000000000000000008900000000000000006005000000000000002018112120181120LA 18 PEREIRA                 PEREIRA             00000001SUPIA               00000777CALDAS              CALLE 38B No 10A 40                                         000000000000                    00000000                                                                                000000000000SUPIA               00000777CALDAS              CALLE 38B No 10A 40                                                                                                     003102186406000000000000000000000000                   
100015929814000000000000000248HECTOR  AUGUSTO LEON  SUAREZ                 0201709092019011000100000000020909020170909022018113000000000000000000000                              12  0002200000042200000000119800000000000000000006330000001041870010007001000000000002018112520181122LA 18 PEREIRA                 PEREIRA             00000001SUPIA               00000777CALDAS              SECTOR EL DORADO                                            000000000000                    00000000                                                                                000000000000SUPIA               00000777CALDAS              SECTOR EL DORADO                                                                                                        003114599530000000000000000000000000                   
100016670716000000000000000251JOSE  JOAQUIN  GIRALDO GRISALES              0201709152018120600100000000021905020170915032018102200000000000000000000                              12  0000000000103140000000000000000000000000000008770000000000000020018000000000000002018070620181022LA 18 PEREIRA                 PEREIRA             00000001DOSQUEBRADAS        00000170RISARALDA           MZ 17 CASA 8                                                000000000000                    00000000                                                                                000000000000DOSQUEBRADAS        00000170RISARALDA           MZ 17 CASA 8                                                                                                            003128087503000000000000000000000000                   
101088305043000000000000000258ALVARO DUARTE ORTEGA                         0201709152019031500100000000020906020170915022018113000000000000000000000                              12  0000460000054060000000251261000000000000000004600000000200600020010003000000000002018101520181010LA 18 PEREIRA                 PEREIRA             00000001PEREIRA             00000001RISARALDA           CALLE 18 15 12                                              000000000000                    00000000                                                                                000000000000PEREIRA             00000001RISARALDA           CALLE 18 15 12                                              CAPRICER.92@HOTMAIL.COM                                     003217250023000000000000000000000000                   
101053773111000000000000000261LUIS FELIPE CASTRO QUINTERO                  0201709152018110300100000000020913020170915022018113000000000072018120300                              12  0003460000050000000000459117000000000000000004250000002016150020001019000000000002018011820180115LA 18 PEREIRA                 PEREIRA             00000001MANIZALES           00000001CALDAS              CARRERA 10B  No  51B 74                                     000000000000                    00000000                                                                                000000000000MANIZALES           00000001CALDAS              CARRERA 10B  No  51B 74                                                                                                 003127143455000000000000000000000000                   
100004546909000000000000000263MILLER NORBEY GAÑAN BETANCUR                0201709082019071800100000000020901020170908012018113000000000000000000000                              12  0000030000063000000000523849000000000000000005780000000000000018003000000000000002018120320181119LA 18 PEREIRA                 PEREIRA             00000001CHINCHINA           00000174CALDAS              CALLE 22A No  7C  58                                        000000000000                    00000000                                                                                000000000000CHINCHINA           00000174CALDAS              CALLE 22A No  7C  58                                        yata28@hotmail.com                                          003205238459000000000000000000000000                   
100010026204000000000000000271JORGE ALBERTO VALENCIA MARIN                 0201709082019070700100000000020101020170908012018113000000000000000000000                              12  0000290000053895000000430960000000000000000009170000000132734010002000000000000002018110720181017LA 18 PEREIRA                 PEREIRA             00000001PEREIRA             00000001RISARALDA           MANZANA 4 CASA 9 SECTOR C PISO 1                            000000000000                    00000000                                                                                000000000000PEREIRA             00000001RISARALDA           MANZANA 4 CASA 9 SECTOR C PISO 1                                                                                        003106911264000000000000000000000000                   
100010104903000000000000000271JORGE PAMPLONA                               0201709082019070700100000000020101020170908012018113000000000000000000000                              12  0000290000053895000000430960000000000000000009170000000132734010002000000000000002018110720181017LA 18 PEREIRA                 PEREIRA             00000001PEREIRA             00000001RISARALDA                                                                       000000000000                    00000000                                                                                000000000000PEREIRA             00000001RISARALDA                                                                                                                                   000000000000000000000000000000000000                   
100018410779000000000000000272JAIRO BEDOYA SANCHEZ                         0201709152018101700100000000020908020170915022018113000000000000000000000                              12  0000970000036795000000123311000000000000000006440000000272660008005003000000000002018090220180825LA 18 PEREIRA                 PEREIRA             00000001PEREIRA             00000001RISARALDA           CARRERA 14 No 97 45 CASA 2                                  000000000000                    00000000                                                                                000000000000PEREIRA             00000001RISARALDA           CARRERA 14 No 97 45 CASA 2                                                                                              003207400208000000000000000000000000                   
100010257150000000000000000278HUGO ORLANDO ZAPATA ACEVEDO                  0201709082019051700100000000020913020170908022018113000000000000000000000                              12  0000710000041085000000368899000000000000000005000000000160736012001000000000000002018120220181117LA 18 PEREIRA                 PEREIRA             00000001MANIZALES           00000001CALDAS              CRA 26A No  41A 10                                          000000000000                    00000000                                                                                000000000000MANIZALES           00000001CALDAS              CRA 26A No  41A 10                                                                                                      003134149887000000000000000000000000                   
100075142685000000000000000281CARLOS EDUARDO OCAMPO MARTINEZ               0201709072019041000100000000020109020170907022018113000000000072018120300                              12  0003270000041100000000365666000000000000000010275000001234500006000002000000000002018101020180912LA 18 PEREIRA                 PEREIRA             00000001CHINCHINA           00000174CALDAS              CALLE 15 No  5A 19                                          000000000000                    00000000                                                                                000000000000CHINCHINA           00000174CALDAS              CALLE 15 No  5A 19                                          ceocampom@hotmail.com                                       003207258174000000000000000000000000                   
100010008513000000000000000309JULIAN ANDRES RODRIGUEZ  MORENO              0201709182019051500100000000020113020170918022018113000000000072018120300                              12  0003180000200000000001673015000000000000000021000000003557700018002011000000000002018011520171227LA 18 PEREIRA                 PEREIRA             00000001PEREIRA             00000001RISARALDA           CARRERA 35 No  35 06                                        000000000000                    00000000                                                                                000000000000PEREIRA             00000001RISARALDA           CARRERA 35 No  35 06                                        julianrodriguez3177@hotmail.com                             003225744999000000000000000000000000                   
101088319022000000000000000312BRYAN ALEXIS SEPULVEDA                       0201709192018020200100000000020913020170919022018113000000000072018120300                              12  00042300000306650000003066500000000000000000053700000013159000080000080000000000020171002        LA 18 PEREIRA                 PEREIRA             00000001DOSQUEBRADAS        00000170RISARALDA           MZ 2 CS 8                                                   000000000000                    00000000                                                                                000000000000DOSQUEBRADAS        00000170RISARALDA           MZ 2 CS 8                                                   sepulvedaalexis713@gmail.com                                003117519689000000000000000000000000                   
100011807694000000000000000317WILBER IBARGUEN MOSQUERA                     0201709012018120100100000000020113020170901022018113000000000062018120300                              12  0002420000042070000000308121000000000000000007160000000828540010002008000000000002018040120180302LA 18 PEREIRA                 PEREIRA             00000001URRAO               00000847ANTIOQUIA           CARRERA 33 No  29 50                                        000000000000                    00000000                                                                                000000000000URRAO               00000847ANTIOQUIA           CARRERA 33 No  29 50                                                                                                    003233582251000000000000000000000000                   
100010095009000000000000000328CONRRADO CASTAÑEDA  CUERVO                  0201709222020000700100000000020113020170922022018113000000000072018120300                              12  00041800002400000000024000000000000000000000250000000041710000260000140000000000020171007        LA 18 PEREIRA                 PEREIRA             00000001PEREIRA             00000001RISARALDA           CODELMAR 2 CASA 4                                           000000000000                    00000000                                                                                000000000000PEREIRA             00000001RISARALDA           CODELMAR 2 CASA 4                                                                                                       003115792313000000000000000000000000                   
100082391225000000000000000363JHON  EDIER GUERRA BELTRAN                   0201709202018030200100000000020913020170920022018113000000000072018120300                              12  00042300000526000000005260000000000000000000079000000017198000100000100000000000020171002        LA 18 PEREIRA                 PEREIRA             00000001SUPIA               00000777CALDAS              CALL 32 10 32                                               000000000000                    00000000                                                                                000000000000SUPIA               00000777CALDAS              CALL 32 10 32                                                                                                           003023186327000000000000000000000000                   
100091274936000000000000000364HOMERO HUMBERTO QUINTERO PUENTES             0201709182018112500100000000020109020170918022018113000000000062018120300                              12  0001270000052600000000164675000000000000000008950000000444618010006004000000000002018072520180704LA 18 PEREIRA                 PEREIRA             00000001SUPIA               00000777CALDAS              PUERTO NUEVO LA FELIZA                                      000000000000                    00000000                                                                                000000000000SUPIA               00000777CALDAS              PUERTO NUEVO LA FELIZA                                                                                                  003138366559000000000000000000000000                   
100015931433000000000000000365HERMILSON PARRA  ALCALDE                     0201709182018100300100000000020913020170918022018113000000000062018120300                              12  0001640000052600000000316265000000000000000007900000000694400010003007000000000002018061820180605LA 18 PEREIRA                 PEREIRA             00000001SUPIA               00000777CALDAS              VRD GUAYMARAL  CASA COLOR NARANJADA                         000000000000                    00000000                                                                                000000000000SUPIA               00000777CALDAS              VRD GUAYMARAL  CASA COLOR NARANJADA                                                                                     003104639752000000000000000000000000                   
100015928920000000000000000369RICAUTE DE JESUS  RINCON RAMIREZ             0201709142018120200100000000020913020170914022018113000000000062018120300                              12  0002260000042200000000309153000000000000000003590000000816600020005015000000000002018041720180405LA 18 PEREIRA                 PEREIRA             00000001SUPIA               00000777CALDAS              LA CONCENTRACION EL LLANO CASA EN OBRA NEGRA SEC EL SANCUDO 000000000000                    00000000                                                                                000000000000SUPIA               00000777CALDAS              LA CONCENTRACION EL LLANO CASA EN OBRA NEGRA SEC EL SANCUDO                                                             003145146661000000000000000000000000                   
100018506182000000000000000377GERMAN  CARDONA  GALLEGO                     0201709262018081500100000000020913020170926022018113000000000072018120300                              12  0003790000054090000000486810000000000000000004600000001698900020002018000000000002017111520171104LA 18 PEREIRA                 PEREIRA             00000001DOSQUEBRADAS        00000170RISARALDA           MZ P CASA 38                                                000000000000                    00000000                                                                                000000000000DOSQUEBRADAS        00000170RISARALDA           MZ P CASA 38                                                                                                            003188800044000000000000000000000000                   
101060648965000000000000000379CARLOS  MARIO MOLANO LIBREROS                0201709282019013000100000000020901020170928012018113000000000000000000000                              12  0000150000046265000000108843000000000000000003935000000000000020015000000000000002018111520181108LA 18 PEREIRA                 PEREIRA             00000001PEREIRA             00000001RISARALDA           CALLE 18 BIS No  23 10                                      000000000000                    00000000                                                                                000000000000PEREIRA             00000001RISARALDA           CALLE 18 BIS No  23 10                                      carlos.molano5343@correo.policia.gov.co                     003016111970000000000000000000000000                   
100031960288000000000000000383MYRIAM GARCIA ALZATE                         0201701302017031500100000000020109020170130022018113000000000000000000000                              12  00042400000800000000008000000000000000000001600000000021870000010000010000000000020170215        LA 18 PEREIRA                 PEREIRA             00000001CALI                00000001VALLE DEL CAUCA     CARRERA 7 D BIS 68 47                                       000000000000                    00000000                                                                                000000000000CALI                00000001VALLE DEL CAUCA     CARRERA 7 D BIS 68 47                                                                                                   000006632228000000000000000000000000                   
100042155681000000000000000403MARIA  ISABEL BEDOYA  DUQUE                  0201709232019031800100000000020909020170923022018113000000000000000000000                              12  0002860000041085000000376605000000000000000005140000000589829012001004000000000002018100320181001LA 18 PEREIRA                 PEREIRA             00000001DOSQUEBRADAS        00000170RISARALDA           CRA 12 No  57 78                                            000000000000                    00000000                                                                                000000000000DOSQUEBRADAS        00000170RISARALDA           CRA 12 No  57 78                                            JUANJO-122010@HOTMAIL.COM                                   003137139388000000000000000000000000                   
100015931026000000000000000411CARLOS WILLIAM SANCHEZ  MARIN                0201709212019021400100000000020913020170921022018113000000000062018120300                              12  0003000000052600000000368200000000000000000004475000001007650020006014000000000002018071420171216LA 18 PEREIRA                 PEREIRA             00000001SUPIA               00000777CALDAS              CRA 10 N 31 26                                              000000000000                    00000000                                                                                000000000000SUPIA               00000777CALDAS              CRA 10 N 31 26                                                                                                          003145193440000000000000000000000000                   
101059701137000000000000000412CARLOS  ALBERTO PESCADOR  MORALES            0201709212018080300100000000020913020170921022018113000000000062018120300                              12  0001900000052600000000223071000000000000000009205000000544030008004004000000000002018060320180525LA 18 PEREIRA                 PEREIRA             00000001SUPIA               00000777CALDAS              BAJO CABUYAL ENSEGUIDA DE LA MALOCA CASA EN OBRA NEGRA      000000000000                    00000000                                                                                000000000000SUPIA               00000777CALDAS              BAJO CABUYAL ENSEGUIDA DE LA MALOCA CASA EN OBRA NEGRA                                                                  003228450966000000000000000000000000                   
101058229634000000000000000414JORGE ARMANDO BOLAÑOS  VINASCO              0201709222018110300100000000020109020170922022018113000000000062018120300                              12  0001820000052600000000118136000000000000000015800000000394973005003002000000000002018090320180818LA 18 PEREIRA                 PEREIRA             00000001MARMATO             00000442CALDAS              SECTOR GUAYABITO EL LLANO SERCA AL COLEGIO                  000000000000                    00000000                                                                                000000000000MARMATO             00000442CALDAS              SECTOR GUAYABITO EL LLANO SERCA AL COLEGIO                                                                              003113205115000000000000000000000000                   
100042113587000000000000000424CLAUDIA MILENA BUSTAMANTE RIOS               0201702232018040300100000000021105020170223032018102400000000000000000000                              12  0002030000034500000000000000000000000000000011425000000000000012012000000000000002018010320180309LA 18 PEREIRA                 PEREIRA             00000001PEREIRA             00000001RISARALDA           GAMMA 4 BLOQUE 9 APARTAMENTO 116                            000000000000                    00000000                                                                                000000000000PEREIRA             00000001RISARALDA           GAMMA 4 BLOQUE 9 APARTAMENTO 116                                                                                        003173867111000000000000000000000000                   
100024935114000000000000000424MARIA LIGIA RIOS DE BUSTAMANTE               0201702232018040300100000000021105020170223032018102400000000000000000000                              12  0002030000034500000000000000000000000000000011425000000000000012012000000000000002018010320180309LA 18 PEREIRA                 PEREIRA             00000001PEREIRA             00000001RISARALDA                                                                       000000000000                    00000000                                                                                000000000000PEREIRA             00000001RISARALDA                                                                                                                                   000000000000000000000000000000000000                   
100053132325000000000000000428ADRIANA NAVAS FONSECA                        0201709292022050500100000000020101020170929012018113000000000000000000000                              12  0000000000150000000001122916000000000000000004000000000000000054013000000000000002018110520181107LA 18 PEREIRA                 PEREIRA             00000001PEREIRA             00000001RISARALDA           CALLE 17B 28B 27                                            000000000000                    00000000                                                                                000000000000PEREIRA             00000001RISARALDA           CALLE 17B 28B 27                                                                                                        003217644513000000000000000000000000                   
100075094672000000000000000429JESUS MESIAS CALDERON GALLEGO                0201706082019010600100000000020113020170608022018113000000000072018120300                              12  0003830000080000000000800000000000000000000010000000002349400013000012000000000002017120620171116LA 18 PEREIRA                 PEREIRA             00000001MANIZALES           00000001CALDAS              CARRERA 33 A 27 52                                          000000000000                    00000000                                                                                000000000000MANIZALES           00000001CALDAS              CARRERA 33 A 27 52                                                                                                      003234962800000000000000000000000000                   
101036655191000000000000000434FRANCY GRECIEL LASTRA TAVERA                 0201709272018100300100000000020908020170927022018113000000000000000000000                              12  0001030000030300000000137011000000000000000006570000000284250006003003000000000002018081820180712LA 18 PEREIRA                 PEREIRA             00000001MANIZALES           00000001CALDAS              CARRERA 11 60 48                                            000000000000                    00000000                                                                                000000000000MANIZALES           00000001CALDAS              CARRERA 11 60 48                                                                                                        003206423241000000000000000000000000                   
101053791219000000000000000434JUAN  ALEJANDRO MARTINEZ OROZCO              0201709272018100300100000000020908020170927022018113000000000000000000000                              12  0001030000030300000000137011000000000000000006570000000284250006003003000000000002018081820180712LA 18 PEREIRA                 PEREIRA             00000001MANIZALES           00000001CALDAS                                                                          000000000000                    00000000                                                                                000000000000MANIZALES           00000001CALDAS                                                                                                                                      000000000000000000000000000000000000                   
100018523139000000000000000435GUSTAVO QUINTERO SALAZAR                     0201609272019020200100000000020908020160927022018113000000000000000000000                              12  0001040000054036000000494705000000000000000016755000001388451016005007000000000002018081720180815LA 18 PEREIRA                 PEREIRA             00000001DOSQUEBRADAS        00000170RISARALDA           MANZANA 5 CASA 5                                            000000000000                    00000000                                                                                000000000000DOSQUEBRADAS        00000170RISARALDA           MANZANA 5 CASA 5                                                                                                        003137529480000000000000000000000000                   
100025058222000000000000000437MARIA ESNEDA PALACIO TAPASCO                 0201709272018071700100000000020913020170927022018113000000000072018120300                              12  00040800000535400000005354000000000000000000045500000020320000180000180000000000020171017        LA 18 PEREIRA                 PEREIRA             00000001PEREIRA             00000001RISARALDA           KRA 11 CALLE 75 5                                           000000000000                    00000000                                                                                000000000000PEREIRA             00000001RISARALDA           KRA 11 CALLE 75 5                                                                                                       003147467508000000000000000000000000                   
100018521321000000000000000440DIEGO FERNANDO CRUZ  CRUZ                    0201710042018120700100000000021105020171004032018110900000000000000000000                              12  0000000000041590000000000000000000000000000013960000000000000010010000000000000002018090720181108LA 18 PEREIRA                 PEREIRA             00000001DOSQUEBRADAS        00000170RISARALDA           MANZANA D CASA 7                                            000000000000                    00000000                                                                                000000000000DOSQUEBRADAS        00000170RISARALDA           MANZANA D CASA 7                                                                                                        003217989062000000000000000000000000                   
101053796114000000000000000443CRISTIAN GAVIRIA  VALENCIA                   0201705022019071400100000000020113020170502022018113000000000072018120300                              12  00040600000640000000006400000000000000000000054550000021250500240040130000000000020171114        LA 18 PEREIRA                 PEREIRA             00000001MANIZALES           00000001CALDAS              CRA 38A 10 35                                               000000000000                    00000000                                                                                000000000000MANIZALES           00000001CALDAS              CRA 38A 10 35                                                                                                           003114312307000000000000000000000000                   
101053847142000000000000000443DANIEL MARIN GONZALES                        0201705022019071400100000000020113020170502022018113000000000072018120300                              12  00040600000640000000006400000000000000000000054550000021250500240040130000000000020171114        LA 18 PEREIRA                 PEREIRA             00000001MANIZALES           00000001CALDAS                                                                          000000000000                    00000000                                                                                000000000000MANIZALES           00000001CALDAS                                                                                                                                      000000000000000000000000000000000000                   
100010250106000000000000000444JESUS  ANTONIO ARCILA VASCO                  0201704282018031200100000000020913020170428022018113000000000072018120300                              12  00042000000340000000003400000000000000000000028900000015440000200000200000000000020170512        LA 18 PEREIRA                 PEREIRA             00000001MANIZALES           00000001CALDAS              CALLE 31 A 13 05                                            000000000000                    00000000                                                                                000000000000MANIZALES           00000001CALDAS              CALLE 31 A 13 05                                                                                                        003144848526000000000000000000000000                   
100010227712000000000000000447JOSE  EDUARDO GALVIS LOTERO                  0201703172018020300100000000020913020170317022018113000000000062018120300                              12  00042000000340000000003400000000000000000000028950000016140000200000200000000000020170403        LA 18 PEREIRA                 PEREIRA             00000001MANIZALES           00000001CALDAS              CALLE 48C 39B 94                                            000000000000                    00000000                                                                                000000000000MANIZALES           00000001CALDAS              CALLE 48C 39B 94                                                                                                        003115400784000000000000000000000000                   
101110525503000000000000000448ETNA STEFANY GIRALDO MORALES                 0201705182018081800100000000020913020170518022018113000000000072018120300                              12  0004140000065000000000650000000000000000000019500000001049600002000002000000000002018071820180712LA 18 PEREIRA                 PEREIRA             00000001MANIZALES           00000001CALDAS              KRA 2F1 CALLE 32C 27 CASA 42                                000000000000                    00000000                                                                                000000000000MANIZALES           00000001CALDAS              KRA 2F1 CALLE 32C 27 CASA 42                                                                                            003218774390000000000000000000000000                   
100018596516000000000000000449JHONEIVER PARRA  CORREA                      0201705012017100100100000000020913020170501022018113000000000072018120300                              12  00042000000410660000004106600000000000000000051350000016131500120030090000000000020170516        LA 18 PEREIRA                 PEREIRA             00000001SANTA ROSA DE CABAL 00000682RISARALDA           CALLE 14 10 47                                              000000000000                    00000000                                                                                000000000000SANTA ROSA DE CABAL 00000682RISARALDA           CALLE 14 10 47                                                                                                          003103747362000000000000000000000000                   
100041941241000000000000000450ALICIA MORALES  LARGO                        0201710042018112200100000000020906020171004022018113000000000000000000000                              12  0000540000041085000000097250000000000000000005140000000203000012009003000000000002018100720180912LA 18 PEREIRA                 PEREIRA             00000001PEREIRA             00000001RISARALDA           MZ 7 CASA 18                                                000000000000                    00000000                                                                                000000000000PEREIRA             00000001RISARALDA           MZ 7 CASA 18                                                POCHIS1978@HOTMAIL.COM                                      003146747516000000000000000000000000                   
100018611911000000000000000454DIEGO MAURICIO JIMENEZ OSORIO                0201709292019011600100000000020901020170929012018113000000000000000000000                              12  0000000000026610000000127757000000000000000005770000000000000006003000000000000002018120120181116LA 18 PEREIRA                 PEREIRA             00000001PEREIRA             00000001RISARALDA           CRA 7 No  41 66 APARTAMENTO 4                               000000000000                    00000000                                                                                000000000000PEREIRA             00000001RISARALDA           CRA 7 No  41 66 APARTAMENTO 4                               diego0104911@hotmail.com                                    003106621654000000000000000000000000                   
101088309925000000000000000454YESICA YOVANA  PRECIADO  SUAREZ              0201709292019011600100000000020901020170929012018113000000000000000000000                              12  0000000000026610000000127757000000000000000005770000000000000006003000000000000002018120120181116LA 18 PEREIRA                 PEREIRA             00000001DOSQUEBRADAS        00000170RISARALDA                                                                       000000000000                    00000000                                                                                000000000000DOSQUEBRADAS        00000170RISARALDA                                                                                                                                   000000000000000000000000000000000000                   
101038626684000000000000000458RUBEN DARIO  VARGAS  QUIROZ                  0201709222017113000100000000020913020170922022018113000000000072018120300                              12  0003790000020000000000049604000000000000000012630000001453130004003001000000000002017111520171103LA 18 PEREIRA                 PEREIRA             00000001URRAO               00000847ANTIOQUIA           CARRERA 27 CON CALLE 25B  3                                 000000000000                    00000000                                                                                000000000000URRAO               00000847ANTIOQUIA           CARRERA 27 CON CALLE 25B  3                                                                                             003217236891000000000000000000000000                   
101151938481000000000000000461DANIEL ENRIQUE VARGAS  ROJAS                 0201709262018011700100000000020913020170926022018113000000000072018120300                              12  00040800000361600000003616000000000000000000078400000013388400060000060000000000020171017        LA 18 PEREIRA                 PEREIRA             00000001CARTAGO             00000147VALLE DEL CAUCA     CALLE 18 No  5 99                                           000000000000                    00000000                                                                                000000000000CARTAGO             00000147VALLE DEL CAUCA     CALLE 18 No  5 99                                           danielcalicolombia@gmail.com                                003103503820000000000000000000000000                   
100016223581000000000000000463JHON  JAIRO CASTRO POSADA                    0201709272018070600100000000020113020170927022018113000000000072018120300                              12  0002680000041085000000326014000000000000000012330000001617020005001004000000000002018030620180209LA 18 PEREIRA                 PEREIRA             00000001CARTAGO             00000147VALLE DEL CAUCA     CALLE 8 No  12 32                                           000000000000                    00000000                                                                                000000000000CARTAGO             00000147VALLE DEL CAUCA     CALLE 8 No  12 32                                           jhonjairocastroposada@gmail.com                             003146055355000000000000000000000000                   
101088012845000000000000000468JESUS DAVID GALVEZ RAMIREZ                   0201707242019090200100000000020913020170724022018113000000000000000000000                              12  0002250000041066000000410427000000000000000003495000000297505020001001000000000002018111720181116LA 18 PEREIRA                 PEREIRA             00000001DOSQUEBRADAS        00000170RISARALDA           MZ 4 CS 10                                                  000000000000                    00000000                                                                                000000000000DOSQUEBRADAS        00000170RISARALDA           MZ 4 CS 10                                                  davidg722@hotmail.com                                       003125582732000000000000000000000000                   
100098514658000000000000000480LUIS  HERNAN CARDONA MONTOYA                 0201710022018091700100000000020913020171002022018113000000000062018120300                              12  0002260000052600000000260208000000000000000004475000001521825020010010000000000002018041720180312LA 18 PEREIRA                 PEREIRA             00000001SUPIA               00000777CALDAS              CALL21 9 23 CASA 231                                        000000000000                    00000000                                                                                000000000000SUPIA               00000777CALDAS              CALL21 9 23 CASA 231                                                                                                    003193194283000000000000000000000000                   
101054551579000000000000000485CARLOS  ANDRES VASQUEZ FORERO                0201710042018101000100000000021105020171004032018100300000000000000000000                              12  0000000000031066000000000000000000000000000005280000000000000010010000000000000002018081020181003LA 18 PEREIRA                 PEREIRA             00000001PEREIRA             00000001RISARALDA           MZ 8 CASA 12 PISO 3 SEPTOR A                                000000000000                    00000000                                                                                000000000000PEREIRA             00000001RISARALDA           MZ 8 CASA 12 PISO 3 SEPTOR A                                ANDREWFOREVER2011@HOTMAIL.COM                               003128194203000000000000000000000000                   
100029925066000000000000000486MARIA  AMPARO RAMIREZ  RAMIREZ               0201710062018100300100000000020108020171006022018113000000000062018120300                              12  0001180000054090000000112312000000000000000013525000000314750006004002000000000002018080320180704LA 18 PEREIRA                 PEREIRA             00000001ARMENIA             00000001QUINDIO             MANZANA 10 CASA 31                                          000000000000                    00000000                                                                                000000000000ARMENIA             00000001QUINDIO             MANZANA 10 CASA 31                                                                                                      003127783001000000000000000000000000                   
101015277851000000000000000487DANIEL VILLA TRUJILLO                        0201710062018112000100000000021105020171006032018101700000000000000000000                              12  0000000000043535000000000000000000000000000010890000000000000007007000000000000002018102020181016LA 18 PEREIRA                 PEREIRA             00000001DOSQUEBRADAS        00000170RISARALDA           CONJUNTO LOMA LINDA APTO 101 TORRE 6                        000000000000                    00000000                                                                                000000000000DOSQUEBRADAS        00000170RISARALDA           CONJUNTO LOMA LINDA APTO 101 TORRE 6                        danivilla11@hotmail.com                                     003212383224000000000000000000000000                   
101007216925000000000000000492YESICA  TATIANA BERRIO MONTOYA               0201702032018030300100000000020913020170203022018113000000000072018120300                              12  00041600000630000000006300000000000000000000044650000021057000240020220000000000020170403        LA 18 PEREIRA                 PEREIRA             00000001MANIZALES           00000001CALDAS              CARRERA 14A No  13 04                                       000000000000                    00000000                                                                                000000000000MANIZALES           00000001CALDAS              CARRERA 14A No  13 04                                       MILY.MON@HOTMAIL.COM                                        003147122479000000000000000000000000                   
101053842257000000000000000493FEDERICO CUARTAS GONZALEZ                    0201702022018080100100000000020913020170202022018113000000000072018120300                              12  0003780000056600000000547817000000000000000004410000001977200024007017000000000002017111620171101LA 18 PEREIRA                 PEREIRA             00000001MANIZALES           00000001CALDAS              CARRERA 4F No  50 96                                        000000000000                    00000000                                                                                000000000000MANIZALES           00000001CALDAS              CARRERA 4F No  50 96                                        FEDANCE@HOTMAIL.COM                                         003128521204000000000000000000000000                   
101053801768000000000000000495PAULA ANDREA MORALES TREJOS                  0201702012018111000100000000020913020170201022018113000000000062018120300                              12  0002100000052000000000455411000000000000000003685000000582835024014010000000000002018061020180524LA 18 PEREIRA                 PEREIRA             00000001MANIZALES           00000001CALDAS              CALLE 26A No  35 64                                         000000000000                    00000000                                                                                000000000000MANIZALES           00000001CALDAS              CALLE 26A No  35 64                                         tukan89@hotmail.com                                         003122066688000000000000000000000000                   
101053820518000000000000000496JEFERSON  ALBEIRO  TORO RIVERA               0201702012018060200100000000020913020170201022018113000000000062018120300                              12  0003990000063000000000584731000000000000000004465000001201410024009015000000000002017101720171010LA 18 PEREIRA                 PEREIRA             00000001MANIZALES           00000001CALDAS              CONJUNTO HABITACIONAL CAMPO HERMOSO                         000000000000                    00000000                                                                                000000000000MANIZALES           00000001CALDAS              CONJUNTO HABITACIONAL CAMPO HERMOSO                                                                                     003123925784000000000000000000000000                   
101056370021000000000000000501DORIS  ADRIANA  ZULUAGA ARIAS                0201709192018040200100000000020909020170919022018113000000000062018120300                              12  0002720000027200000000061468000000000000000005900000000372700006004002000000000002018030220180220LA 18 PEREIRA                 PEREIRA             00000001MANIZALES           00000001CALDAS              CALLE 11 No  26 45 APT 1                                    000000000000                    00000000                                                                                000000000000MANIZALES           00000001CALDAS              CALLE 11 No  26 45 APT 1                                    ariaszuluaga86@hotmail.com                                  003137954863000000000000000000000000                   
101053786244000000000000000502PAULA  ALEJANDRA  LONDOÑO  ALZATE           0201709122019090300100000000020101020170912012018113000000000000000000000                              12  0003730000065000000000650000000000000000000011920000000000000009000000000000000002018120320181106LA 18 PEREIRA                 PEREIRA             00000001MANIZALES           00000001CALDAS              CALLE 66 No  40A 33                                         000000000000                    00000000                                                                                000000000000MANIZALES           00000001CALDAS              CALLE 66 No  40A 33                                         sld.paulal.confa@gmail.com                                  003144788044000000000000000000000000                   
100030324038000000000000000504GLORIA NANCY MUÑOZ CASTAÑO                 0201701312018100200100000000020913020170131022018113000000000072018120300                              12  0003780000060000000000584181000000000000000005000000001687700022001021000000000002017111720171103LA 18 PEREIRA                 PEREIRA             00000001MANIZALES           00000001CALDAS              CARRERA 28 No  13 48                                        000000000000                    00000000                                                                                000000000000MANIZALES           00000001CALDAS              CARRERA 28 No  13 48                                        stefa304@outoolk.es                                         003008611433000000000000000000000000                   
101088336725000000000000000507ANDERSON STEVEN GAVIRIA ARBOLEDA             0201710052018060500100000000020109020171005022018113000000000000000000000                              12  0001770000100000000000000000000000000000000029000000000470000007007001000000000002018060520171015LA 18 PEREIRA                 PEREIRA             00000001PEREIRA             00000001RISARALDA           MZ 7 CS 25                                                  000000000000                    00000000                                                                                000000000000PEREIRA             00000001RISARALDA           MZ 7 CS 25                                                                                                              034678233186000000000000000000000000                   
