10000900975741INVERSIONES GORA SAS00000000008868620210724A202512310000000100000000000000000                                                                               
60098606681114CONTINGENCIA        000000000000000000000000000000000000000000000N0098606681114                                               2025123100                    
60000075096817ORLANDO    OROZCO  C000000000000000000000000000000000000000000000N0000075096817                                               2025123100                    
60000010088764GUILLERMO LEON CASTR000000000000000000000000000000000000000000000N0000010088764                                               2025123100                    
60000043482124MARIBEL MONSALVE CAN000000000000000000000000000000000000000000000N0000043482124                                               2025123100                    
60001088292793JUAN CARLOS MARIN  A000000000000000000000000000000000000000000000N0001088292793                                               2025123100                    
60000018513952JORGE FERNANDO GRAJA000000000000000000000000000000000000000000000N0000018513952                                               2025123100                    
60001088240543JORGE  LUIS  ROMERO 000000000000000000000000000000000000000000000N0001088240543                                               2025123100                    
60001225089018MICHEL DAVID ZAPATA 000000000000000000000000000000000000000000000N0001225089018                                               2025123100                    
60001088825432ROBINSON  ALEJANDRO 000000000000000000000000000000000000000000000N0001088825432                                               2025123100                    
60001004994848ANGELA LOZADA  TAMAY000000000000000000000000000000000000000000000N0001004994848                                               2025123100                    
60000030404886ELSA  MARIA CASTRILL000000000000000000000000000000000000000000000N0000030404886                                               2025123100                    
60000009816610ORLANDO CORTES      000000000000000000000000000000000000000000000N0000009816610                                               2025123100                    
60001053793279MAICOL ALEXIS ORREGO000000000000000000000000000000000000000000000N0001053793279                                               2025123100                    
60000009867593ROBERTO LONDONO  HER000000000000000000000000000000000000000000000N0000009867593                                               2025123100                    
60000025180592SANDRA  MILENA  PULG000000000000000000000000000000000000000000000N0000025180592                                               2025123100                    
60001059705619JERALDYN  RESTREPO  000000000000000000000000000000000000000000000N0001059705619                                               2025123100                    
60000034050595MARIA  GLORIA DEVIA 000000000000000000000000000000000000000000000N0000034050595                                               2025123100                    
60000052856949PAOLA ANDREA  CUBIDE000000000000000000000000000000000000000000000N0000052856949                                               2025123100                    
60000042022296GLADYS ELENA ORTIZ S000000000000000000000000000000000000000000000N0000042022296                                               2025123100                    
60000024944085DORA  SALAZAR  DIAZ 000000000000000000000000000000000000000000000N0000024944085                                               2025123100                    
60001088326340LINA MARCELA QUINTER000000000000000000000000000000000000000000000N0001088326340                                               2025123100                    
60001053839995VERONICA  OCAMPO QUI000000000000000000000000000000000000000000000N0001053839995                                               2025123100                    
60001088014029CARLOS MARIO ESCALAN000000000000000000000000000000000000000000000N0001088014029                                               2025123100                    
60001060587284ERICA  CATERINE VALL000000000000000000000000000000000000000000000N0001060587284                                               2025123100                    
60000018501878ALBERTO  GONZALEZ MA000000000000000000000000000000000000000000000N0000018501878                                               2025123100                    
60000030349526ADRIANA  PATRICIA  V000000000000000000000000000000000000000000000N0000030349526                                               2025123100                    
60001053852200VALENTINA HERNANDEZ 000000000000000000000000000000000000000000000N0001053852200                                               2025123100                    
60000042096315BEATRIZ  ELENA RIASC000000000000000000000000000000000000000000000N0000042096315                                               2025123100                    
60000010000451ELIECER  CORREA     000000000000000000000000000000000000000000000N0000010000451                                               2025123100                    
60001088030796ANGIE PAOLA CASTRO D000000000000000000000000000000000000000000000N0001088030796                                               2025123100                    
60000018615781JOAQUIN  EMILIO CUES000000000000000000000000000000000000000000000N0000018615781                                               2025123100                    
60001088302577JORGE  DANIEL SALAZA000000000000000000000000000000000000000000000N0001088302577                                               2025123100                    
60000014010184WILLIAM   PERDOMO QU000000000000000000000000000000000000000000000N0000014010184                                               2025123100                    
60000014566610OSCAR  ALDEMAR  LARG000000000000000000000000000000000000000000000N0000014566610                                               2025123100                    
60000039664277CONSUELO DE LOS ANGE000000000000000000000000000000000000000000000N0000039664277                                               2025123100                    
60000010002415GERARDO  ARNOBER  BU000000000000000000000000000000000000000000000N0000010002415                                               2025123100                    
60000011807694WILBER IBARGUEN MOSQ000000000000000000000000000000000000000000000N0000011807694                                               2025123100                    
60001053771554JUAN  DAVID GARCIA  000000000000000000000000000000000000000000000N0001053771554                                               2025123100                    
60001088351224SANTIAGO CASTANO  VE000000000000000000000000000000000000000000000N0001088351224                                               2025123100                    
60001088333586ROBINSON ANDRES GARC000000000000000000000000000000000000000000000N0001088333586                                               2025123100                    
60001088332285MICHAEL  ATEHORTUA A000000000000000000000000000000000000000000000N0001088332285                                               2025123100                    
60000015919379WILLIAM  DARIO RAMIR000000000000000000000000000000000000000000000N0000015919379                                               2025123100                    
60000010026204JORGE ALBERTO VALENC000000000000000000000000000000000000000000000N0000010026204                                               2025123100                    
60000004546909MILLER NORBEY GANAN 000000000000000000000000000000000000000000000N0000004546909                                               2025123100                    
60000015929814HECTOR  AUGUSTO LEON000000000000000000000000000000000000000000000N0000015929814                                               2025123100                    
60000011040970MANUEL ANTONIO PULID000000000000000000000000000000000000000000000N0000011040970                                               2025123100                    
60009008862139CONSTRUCASTRO  SAS  000000000000000000000000000000000000000000000N0009008862139                                               2025123100                    
60009009674172INFRAESTRUCTURA  Y A000000000000000000000000000000000000000000000N0009009674172                                               2025123100                    
60001053786244PAULA  ALEJANDRA  LO000000000000000000000000000000000000000000000N0001053786244                                               2025123100                    
60001060589206DUVAN ARLEY RIVERA  000000000000000000000000000000000000000000000N0001060589206                                               2025123100                    
60001088314453MARIA  ALEJANDRA COR000000000000000000000000000000000000000000000N0001088314453                                               2025123100                    
60000015928920RICAUTE DE JESUS  RI000000000000000000000000000000000000000000000N0000015928920                                               2025123100                    
60001088262883CRISTHIAN  ANDRES  G000000000000000000000000000000000000000000000N0001088262883                                               2025123100                    
60000004520680JACKSON  CASTRO GOME000000000000000000000000000000000000000000000N0000004520680                                               2025123100                    
60000024925550MARIA CELENE MONTOES000000000000000000000000000000000000000000000N0000024925550                                               2025123100                    
60000010125172FREDY  HENAO  ZULUAG000000000000000000000000000000000000000000000N0000010125172                                               2025123100                    
60001088333672YENI MARCELA  VELASQ000000000000000000000000000000000000000000000N0001088333672                                               2025123100                    
60000009862954NELSON  ANDRES BATER000000000000000000000000000000000000000000000N0000009862954                                               2025123100                    
60001088285850DANIEL  RODRIGUEZ GO000000000000000000000000000000000000000000000N0001088285850                                               2025123100                    
60000004513555EDINSON ANDRES OQUEN000000000000000000000000000000000000000000000N0000004513555                                               2025123100                    
60001033679619HERNAN DARIO CIFUENT000000000000000000000000000000000000000000000N0001033679619                                               2025123100                    
60001053773111LUIS FELIPE CASTRO Q000000000000000000000000000000000000000000000N0001053773111                                               2025123100                    
60000018511016YOHN JAIRO OSORNO  P000000000000000000000000000000000000000000000N0000018511016                                               2025123100                    
60001088290122MATEO  ANDRES  SALAZ000000000000000000000000000000000000000000000N0001088290122                                               2025123100                    
60000042076419MARIA  SULMA QUEBRAD000000000000000000000000000000000000000000000N0000042076419                                               2025123100                    
60001093216010DANIEL ALBERTO MARQU000000000000000000000000000000000000000000000N0001093216010                                               2025123100                    
60000015931433HERMILSON PARRA  ALC000000000000000000000000000000000000000000000N0000015931433                                               2025123100                    
60000010008513JULIAN ANDRES RODRIG000000000000000000000000000000000000000000000N0000010008513                                               2025123100                    
60001088319022BRYAN ALEXIS SEPULVE000000000000000000000000000000000000000000000N0001088319022                                               2025123100                    
60000082391225JHON  EDIER GUERRA B000000000000000000000000000000000000000000000N0000082391225                                               2025123100                    
60001060595128GUSTAVO ADOLFO HERNA000000000000000000000000000000000000000000000N0001060595128                                               2025123100                    
60001088337037JUANITA CALIS RICAUR000000000000000000000000000000000000000000000N0001088337037                                               2025123100                    
60000015931026CARLOS WILLIAM SANCH000000000000000000000000000000000000000000000N0000015931026                                               2025123100                    
60000015920873MIGUEL ANGEL CARTAGE000000000000000000000000000000000000000000000N0000015920873                                               2025123100                    
60001059784907LUIS CARLOS SANCHEZ 000000000000000000000000000000000000000000000N0001059784907                                               2025123100                    
60000075158286LUIS FERNANDO HIGUIT000000000000000000000000000000000000000000000N0000075158286                                               2025123100                    
60001090336695EFREN ANTONIO RESTRE000000000000000000000000000000000000000000000N0001090336695                                               2025123100                    
60000014700184ALEXANDER  CASTRO  R000000000000000000000000000000000000000000000N0000014700184                                               2025123100                    
60000010095009CONRRADO CASTANEDA  000000000000000000000000000000000000000000000N0000010095009                                               2025123100                    
60001038626684RUBEN DARIO  VARGAS 000000000000000000000000000000000000000000000N0001038626684                                               2025123100                    
60001060597150YONATHAN ESNEIDER AY000000000000000000000000000000000000000000000N0001060597150                                               2025123100                    
60001039760514JUAN  GABRIEL  HINES000000000000000000000000000000000000000000000N0001039760514                                               2025123100                    
60000009911450RUBEN DARIO GANAN GA000000000000000000000000000000000000000000000N0000009911450                                               2025123100                    
60001151938481DANIEL ENRIQUE VARGA000000000000000000000000000000000000000000000N0001151938481                                               2025123100                    
60000018506182GERMAN  CARDONA  GAL000000000000000000000000000000000000000000000N0000018506182                                               2025123100                    
60001088026241DANIEL  RODRIGUEZ HU000000000000000000000000000000000000000000000N0001088026241                                               2025123100                    
60000000560784LEONARDO  BRICENO AR000000000000000000000000000000000000000000000N0000000560784                                               2025123100                    
60000014242171LUIS  ERNESTO FERNAN000000000000000000000000000000000000000000000N0000014242171                                               2025123100                    
60000031960288MYRIAM GARCIA ALZATE000000000000000000000000000000000000000000000N0000031960288                                               2025123100                    
60000098514658LUIS  HERNAN CARDONA000000000000000000000000000000000000000000000N0000098514658                                               2025123100                    
60000075094672JESUS MESIAS CALDERO000000000000000000000000000000000000000000000N0000075094672                                               2025123100                    
60000004446685CARLOS ARTURO HENAO 000000000000000000000000000000000000000000000N0000004446685                                               2025123100                    
60000042056591MARIA RUBIELA TREJOS000000000000000000000000000000000000000000000N0000042056591                                               2025123100                    
60000025058222MARIA ESNEDA PALACIO000000000000000000000000000000000000000000000N0000025058222                                               2025123100                    
60000042082037LUZ ESTELA RODRIGUEZ000000000000000000000000000000000000000000000N0000042082037                                               2025123100                    
60001053796114CRISTIAN GAVIRIA  VA000000000000000000000000000000000000000000000N0001053796114                                               2025123100                    
60000010250106JESUS  ANTONIO ARCIL000000000000000000000000000000000000000000000N0000010250106                                               2025123100                    
60000010227712JOSE  EDUARDO GALVIS000000000000000000000000000000000000000000000N0000010227712                                               2025123100                    
60001110525503ETNA STEFANY GIRALDO000000000000000000000000000000000000000000000N0001110525503                                               2025123100                    
60000018596516JHONEIVER PARRA  COR000000000000000000000000000000000000000000000N0000018596516                                               2025123100                    
60000029925066MARIA  AMPARO RAMIRE000000000000000000000000000000000000000000000N0000029925066                                               2025123100                    
60000009846426RICAUTE DE JESUS  SA000000000000000000000000000000000000000000000N0000009846426                                               2025123100                    
60000029158500PAULA ANDREA GIRALDO000000000000000000000000000000000000000000000N0000029158500                                               2025123100                    
60001007216925YESICA  TATIANA BERR000000000000000000000000000000000000000000000N0001007216925                                               2025123100                    
60001058230379JOSE IVAN MARIN AGUI000000000000000000000000000000000000000000000N0001058230379                                               2025123100                    
60001053842257FEDERICO CUARTAS GON000000000000000000000000000000000000000000000N0001053842257                                               2025123100                    
60001053801768PAULA ANDREA MORALES000000000000000000000000000000000000000000000N0001053801768                                               2025123100                    
60001053820518JEFERSON  ALBEIRO  T000000000000000000000000000000000000000000000N0001053820518                                               2025123100                    
60000030324038GLORIA NANCY MUNOZ C000000000000000000000000000000000000000000000N0000030324038                                               2025123100                    
60000075102555JONNATAN  CORREDOR L000000000000000000000000000000000000000000000N0000075102555                                               2025123100                    
60000010224510GERMAN GONZALEZ ESCO000000000000000000000000000000000000000000000N0000010224510                                               2025123100                    
60000075103186IVAN DARIO  PINEDA  000000000000000000000000000000000000000000000N0000075103186                                               2025123100                    
60000010222026BERNARDO  DUQUE HENA000000000000000000000000000000000000000000000N0000010222026                                               2025123100                    
60001053825060JESSICA VANESSA BEDO000000000000000000000000000000000000000000000N0001053825060                                               2025123100                    
60001053839009JHON  SEBASTIAN CAST000000000000000000000000000000000000000000000N0001053839009                                               2025123100                    
60001023019992JHON  MILLER VISCATI000000000000000000000000000000000000000000000N0001023019992                                               2025123100                    
60001061370159DIEGO ALEXANDER CAST000000000000000000000000000000000000000000000N0001061370159                                               2025123100                    
60000018616967JOSE  MAURICIO MONTE000000000000000000000000000000000000000000000N0000018616967                                               2025123100                    
60001054918437MARY LUZ TREJOS     000000000000000000000000000000000000000000000N0001054918437                                               2025123100                    
60001060655479JHON  ALEJANDRO GIRA000000000000000000000000000000000000000000000N0001060655479                                               2025123100                    
60000010284048JORGE ALBERTO SILVA 000000000000000000000000000000000000000000000N0000010284048                                               2025123100                    
60001053798740CLAUDIA  LORENA CARD000000000000000000000000000000000000000000000N0001053798740                                               2025123100                    
60000030327718FLORANCY  LONDONO  A000000000000000000000000000000000000000000000N0000030327718                                               2025123100                    
60000025233562CLAUDIA  MARIA  LOND000000000000000000000000000000000000000000000N0000025233562                                               2025123100                    
60000075078300JHON  FREDY CAICEDO 000000000000000000000000000000000000000000000N0000075078300                                               2025123100                    
60000066774243YOLANDA  RIVERA  LOP000000000000000000000000000000000000000000000N0000066774243                                               2025123100                    
60000030235945CLAUDIA MARCELA GAMB000000000000000000000000000000000000000000000N0000030235945                                               2025123100                    
60000015929824LUIS ALFONSO VILLA S000000000000000000000000000000000000000000000N0000015929824                                               2025123100                    
60000075099878JHON  FREDY MUNOZ HE000000000000000000000000000000000000000000000N0000075099878                                               2025123100                    
60001110453192DANIEL  EDUARDO GIL 000000000000000000000000000000000000000000000N0001110453192                                               2025123100                    
60001060268124ESTEFANIA LANCHEROS 000000000000000000000000000000000000000000000N0001060268124                                               2025123100                    
60001060654624JORGE ELIECER QUINTE000000000000000000000000000000000000000000000N0001060654624                                               2025123100                    
60001006208841JHONATHAN  ANDRES  V000000000000000000000000000000000000000000000N0001006208841                                               2025123100                    
60001056300149SANDRA  MILENA MARIN000000000000000000000000000000000000000000000N0001056300149                                               2025123100                    
60001053853791CRISTIAN CAMILO  OSO000000000000000000000000000000000000000000000N0001053853791                                               2025123100                    
60000011809850HANNERTT  GARCIA LEM000000000000000000000000000000000000000000000N0000011809850                                               2025123100                    
60000009847739WALTER LORA ECHAVARR000000000000000000000000000000000000000000000N0000009847739                                               2025123100                    
60000028541539CAROLINA ALBA CONDE 000000000000000000000000000000000000000000000N0000028541539                                               2025123100                    
60000018617542JHON FREDY CASTILLO 000000000000000000000000000000000000000000000N0000018617542                                               2025123100                    
60001093218734JUAN CARLOS FLOREZ R000000000000000000000000000000000000000000000N0001093218734                                               2025123100                    
60000018614671JHON JAIRO ANGEL MOR000000000000000000000000000000000000000000000N0000018614671                                               2025123100                    
60000042102943LUCERO  RAMIREZ GALV000000000000000000000000000000000000000000000N0000042102943                                               2025123100                    
60000030373090MARIA YANETH FRANCO 000000000000000000000000000000000000000000000N0000030373090                                               2025123100                    
60000004474582GONZALO DUQUE CEBALL000000000000000000000000000000000000000000000N0000004474582                                               2025123100                    
60001093222015JHONNATAN  ALEXIS GI000000000000000000000000000000000000000000000N0001093222015                                               2025123100                    
60001088252439YENI ANDREA OSPINA P000000000000000000000000000000000000000000000N0001088252439                                               2025123100                    
60000075048796ARIEL MARIN VARGAS  000000000000000000000000000000000000000000000N0000075048796                                               2025123100                    
60000030322774LUZ  MARINA MOSQUERA000000000000000000000000000000000000000000000N0000030322774                                               2025123100                    
60000034056947OFIR MONTOYA BARRENE000000000000000000000000000000000000000000000N0000034056947                                               2025123100                    
60000016053763JESUS MARIA GALLEGO 000000000000000000000000000000000000000000000N0000016053763                                               2025123100                    
60001087549516JOSE  LUIS PALACIO  000000000000000000000000000000000000000000000N0001087549516                                               2025123100                    
60000010109045HERIBERTO MENDOZA  M000000000000000000000000000000000000000000000N0000010109045                                               2025123100                    
60000030374411CLAUDIA FLOREZ      000000000000000000000000000000000000000000000N0000030374411                                               2025123100                    
60000018511851JOSE  GERMAN  FLOREZ000000000000000000000000000000000000000000000N0000018511851                                               2025123100                    
60000042124221ARGELIA RODRIGUEZ CO000000000000000000000000000000000000000000000N0000042124221                                               2025123100                    
60000024839505MARIA  ELSY LOAIZA F000000000000000000000000000000000000000000000N0000024839505                                               2025123100                    
60000014944601ORLANDO DE JESUS GOM000000000000000000000000000000000000000000000N0000014944601                                               2025123100                    
60001055832880MARISOL AGUIRRE ALZA000000000000000000000000000000000000000000000N0001055832880                                               2025123100                    
60000075157741VICTOR HUGO BUITRAGO000000000000000000000000000000000000000000000N0000075157741                                               2025123100                    
60001088297539XAVIER  DAVID HINEST000000000000000000000000000000000000000000000N0001088297539                                               2025123100                    
60000043842624DIANA MARIA OSORIO C000000000000000000000000000000000000000000000N0000043842624                                               2025123100                    
60000024343730JANETH EMILSEN RIOS 000000000000000000000000000000000000000000000N0000024343730                                               2025123100                    
60000042068527ESPERANZA  GUARIN AG000000000000000000000000000000000000000000000N0000042068527                                               2025123100                    
60000010075606HERNANDO SANCHEZ GAR000000000000000000000000000000000000000000000N0000010075606                                               2025123100                    
60001088029741ANGELO  ALEXANDER OS000000000000000000000000000000000000000000000N0001088029741                                               2025123100                    
60000016055548HECTOR FABIO ARREDON000000000000000000000000000000000000000000000N0000016055548                                               2025123100                    
60000024394041YENY PATRICIA GRANAD000000000000000000000000000000000000000000000N0000024394041                                               2025123100                    
60000018510112KRISTIAN  MAURICIO C000000000000000000000000000000000000000000000N0000018510112                                               2025123100                    
60001097726981LILIA  MARCELA VEGA 000000000000000000000000000000000000000000000N0001097726981                                               2025123100                    
60000024836816MARIA CELINA OCAMPO 000000000000000000000000000000000000000000000N0000024836816                                               2025123100                    
60000042133154CLAUDIA PATRICIA VAL000000000000000000000000000000000000000000000N0000042133154                                               2025123100                    
60001193229402CARLOS  JULIAN VALEN000000000000000000000000000000000000000000000N0001193229402                                               2025123100                    
60001004683349MONICA  TATIANA ZAPA000000000000000000000000000000000000000000000N0001004683349                                               2025123100                    
60000018508780RICARDO  JARAMILLO  000000000000000000000000000000000000000000000N0000018508780                                               2025123100                    
60001061372328ROSA VALENTINA HOLGU000000000000000000000000000000000000000000000N0001061372328                                               2025123100                    
60000031201488DILIA  CHITO  AGUDEL000000000000000000000000000000000000000000000N0000031201488                                               2025123100                    
60001004993602ELVER JAMES PEREA  P000000000000000000000000000000000000000000000N0001004993602                                               2025123100                    
60001004733144JENNY  TATIANA MOSQU000000000000000000000000000000000000000000000N0001004733144                                               2025123100                    
60000010077689ROGELIO GRISALES  GA000000000000000000000000000000000000000000000N0000010077689                                               2025123100                    
60000018521614DIEGO  FERNANDO GUZM000000000000000000000000000000000000000000000N0000018521614                                               2025123100                    
60000042141281MARILU RODRIGUEZ HEN000000000000000000000000000000000000000000000N0000042141281                                               2025123100                    
60000024370904DORA LILIA ARIAS ARC000000000000000000000000000000000000000000000N0000024370904                                               2025123100                    
60000015911769MARIO DAVID LADINO  000000000000000000000000000000000000000000000N0000015911769                                               2025123100                    
60001057757802VICTOR  JULIAN RIOS 000000000000000000000000000000000000000000000N0001057757802                                               2025123100                    
60000004417437JUAN  GABRIEL VALENC000000000000000000000000000000000000000000000N0000004417437                                               2025123100                    
60000010095540ANTONIO  JOSE RUIZ V000000000000000000000000000000000000000000000N0000010095540                                               2025123100                    
60000004337077NELSON ANTONIO SANCH000000000000000000000000000000000000000000000N0000004337077                                               2025123100                    
60000004348054JOSE GINEL RODAS CAR000000000000000000000000000000000000000000000N0000004348054                                               2025123100                    
60001088014495JHONATHAN CORERA  CO000000000000000000000000000000000000000000000N0001088014495                                               2025123100                    
60001088010844JHON EDISON RESTREPO000000000000000000000000000000000000000000000N0001088010844                                               2025123100                    
60000009923559OSCAR ANDRES RIOS GR000000000000000000000000000000000000000000000N0000009923559                                               2025123100                    
60000093386897JUAN  CARLOS NARANJO000000000000000000000000000000000000000000000N0000093386897                                               2025123100                    
60000010109302ELIECER GRAJALES GRI000000000000000000000000000000000000000000000N0000010109302                                               2025123100                    
60000094276065CARLOS  HUMBERTO MON000000000000000000000000000000000000000000000N0000094276065                                               2025123100                    
60000010144176ALBEIRO  GAVIRIA  CA000000000000000000000000000000000000000000000N0000010144176                                               2025123100                    
60001094897978LEDIN ANDREY ERAZO O000000000000000000000000000000000000000000000N0001094897978                                               2025123100                    
60000042109107CLAUDIA LUCIA OROZCO000000000000000000000000000000000000000000000N0000042109107                                               2025123100                    
60001088248507JUAN  MANUEL HOLGUIN000000000000000000000000000000000000000000000N0001088248507                                               2025123100                    
60000019288974RICARDO   ADARVE OSO000000000000000000000000000000000000000000000N0000019288974                                               2025123100                    
60001107094587STEVEN ANDRES NARVAE000000000000000000000000000000000000000000000N0001107094587                                               2025123100                    
60001088267525EDWIN  PEREZ        000000000000000000000000000000000000000000000N0001088267525                                               2025123100                    
60001060268456JESUS ANDRES LOAIZA 000000000000000000000000000000000000000000000N0001060268456                                               2025123100                    
60001087557210KENETH ANDERSON GOME000000000000000000000000000000000000000000000N0001087557210                                               2025123100                    
60001088328567JORGE ANDRES LOEZ AR000000000000000000000000000000000000000000000N0001088328567                                               2025123100                    
60001143947341HANNER DAVID NARVAEZ000000000000000000000000000000000000000000000N0001143947341                                               2025123100                    
60000018616081JOSE HELMER GRISALES000000000000000000000000000000000000000000000N0000018616081                                               2025123100                    
60001088277496YENNIFER DIAZ TABARE000000000000000000000000000000000000000000000N0001088277496                                               2025123100                    
60000009861890WILSON ARMANDO RIVER000000000000000000000000000000000000000000000N0000009861890                                               2025123100                    
60000004519635CARLOS ANDRES LONDON000000000000000000000000000000000000000000000N0000004519635                                               2025123100                    
60000015924258MAURICIO ANDRES LARG000000000000000000000000000000000000000000000N0000015924258                                               2025123100                    
60001094884389MAURICIO MURILLO QUI000000000000000000000000000000000000000000000N0001094884389                                               2025123100                    
60000010083051LUIS  ERNESTO TREJOS000000000000000000000000000000000000000000000N0000010083051                                               2025123100                    
60001024516564JAIME ANDRES CASTANE000000000000000000000000000000000000000000000N0001024516564                                               2025123100                    
60001059695113LUIS GONZALO BECERRA000000000000000000000000000000000000000000000N0001059695113                                               2025123100                    
60000041954375ANA  MILENA GANAN TA000000000000000000000000000000000000000000000N0000041954375                                               2025123100                    
60001007353666HECTOR ELIECER SALDA000000000000000000000000000000000000000000000N0001007353666                                               2025123100                    
60001088291256TANIA VEGA CAMPINO  000000000000000000000000000000000000000000000N0001088291256                                               2025123100                    
60000075097600JUAN  CARLOS  VELEZ 000000000000000000000000000000000000000000000N0000075097600                                               2025123100                    
60001088009881YESSICA  CASTANEDA  000000000000000000000000000000000000000000000N0001088009881                                               2025123100                    
60001059701021HUGO  ANDRES  BUENO 000000000000000000000000000000000000000000000N0001059701021                                               2025123100                    
60001088263634KATHERINE  TABIMA MA000000000000000000000000000000000000000000000N0001088263634                                               2025123100                    
60001088009141JHON  JADER  VALENCI000000000000000000000000000000000000000000000N0001088009141                                               2025123100                    
60000039299620MAGDALENA  MARIN MAR000000000000000000000000000000000000000000000N0000039299620                                               2025123100                    
60001053815911MARIO  ANDRES  LOAIZ000000000000000000000000000000000000000000000N0001053815911                                               2025123100                    
60001053769031JOAN  SEBASTIAN  TOR000000000000000000000000000000000000000000000N0001053769031                                               2025123100                    
60000015927192SERAFIN ANTONIO AYAL000000000000000000000000000000000000000000000N0000015927192                                               2025123100                    
60000010213899JOSE  HERNANDO  VALE000000000000000000000000000000000000000000000N0000010213899                                               2025123100                    
60001053803092YURI  ANDREA  CRUZ  000000000000000000000000000000000000000000000N0001053803092                                               2025123100                    
60000075038536ALBEIRO DE JESUS TRE000000000000000000000000000000000000000000000N0000075038536                                               2025123100                    
60001060588479JOSE YOANNY TAPASCO 000000000000000000000000000000000000000000000N0001060588479                                               2025123100                    
60001088252619JHON  FREDY CASTRO O000000000000000000000000000000000000000000000N0001088252619                                               2025123100                    
60000094406339JOSE JOVANNI CORTES 000000000000000000000000000000000000000000000N0000094406339                                               2025123100                    
60001088325635JHON ALEXANDER HINCA000000000000000000000000000000000000000000000N0001088325635                                               2025123100                    
60001053819388ANGELA  MAYERLY  MON000000000000000000000000000000000000000000000N0001053819388                                               2025123100                    
60001060653340OSCAR  MAURICIO ARAN000000000000000000000000000000000000000000000N0001060653340                                               2025123100                    
60001060590104MARIA EMPERATRIZ VIL000000000000000000000000000000000000000000000N0001060590104                                               2025123100                    
60000010252187OFFER MIGUEL QUINTAN000000000000000000000000000000000000000000000N0000010252187                                               2025123100                    
60001010031621JULIETH ECHEVERRI CA000000000000000000000000000000000000000000000N0001010031621                                               2025123100                    
60000015925450CARLOS ALBERTO RAMIR000000000000000000000000000000000000000000000N0000015925450                                               2025123100                    
60000075108333YEISON  FERNEY LOPEZ000000000000000000000000000000000000000000000N0000075108333                                               2025123100                    
60000024743168MONICA  PATRICIA PUL000000000000000000000000000000000000000000000N0000024743168                                               2025123100                    
60001121875751JUAN CARLOS MUNOZ GO000000000000000000000000000000000000000000000N0001121875751                                               2025123100                    
60001058846361JAIVER ALONSO  CANON000000000000000000000000000000000000000000000N0001058846361                                               2025123100                    
60000025195563DORA NANCY PESCADOR 000000000000000000000000000000000000000000000N0000025195563                                               2025123100                    
60000010017464HEIDER  MORALES GUZM000000000000000000000000000000000000000000000N0000010017464                                               2025123100                    
60000024955474CONSUELO DUQUE  MORA000000000000000000000000000000000000000000000N0000024955474                                               2025123100                    
60000010028738LUIS FERNANDO CASTRO000000000000000000000000000000000000000000000N0000010028738                                               2025123100                    
60000033990589OLGA LUCIA TORO REND000000000000000000000000000000000000000000000N0000033990589                                               2025123100                    
60000030233040VIVIANA ANDREA LONDO000000000000000000000000000000000000000000000N0000030233040                                               2025123100                    
60001094900563BRIAN STIVEN MURIEL 000000000000000000000000000000000000000000000N0001094900563                                               2025123100                    
60000010279406JOSE WILDER SALGADO 000000000000000000000000000000000000000000000N0000010279406                                               2025123100                    
60000017173237WILLIAM OCAMPO HENAO000000000000000000000000000000000000000000000N0000017173237                                               2025123100                    
60001060594717ALEJANDRA  AYALA LAR000000000000000000000000000000000000000000000N0001060594717                                               2025123100                    
60000006112144JOSE ADRUBAL ARISMEN000000000000000000000000000000000000000000000N0000006112144                                               2025123100                    
60001060593572FABIO ANDRES AGUIRRE000000000000000000000000000000000000000000000N0001060593572                                               2025123100                    
60000015906976JAVIER VALENCIA VELA000000000000000000000000000000000000000000000N0000015906976                                               2025123100                    
60000015928843DUVAN DE JESUS FLORE000000000000000000000000000000000000000000000N0000015928843                                               2025123100                    
60000015928557ALVARO FERNANDO MEJI000000000000000000000000000000000000000000000N0000015928557                                               2025123100                    
60001058228636JHEISON  DAVID CHAVA000000000000000000000000000000000000000000000N0001058228636                                               2025123100                    
60000024741970ANA RITA RESTREPO MO000000000000000000000000000000000000000000000N0000024741970                                               2025123100                    
60000024743146LADY JOHANNA SANCHEZ000000000000000000000000000000000000000000000N0000024743146                                               2025123100                    
60000004446571OMAR GANAN GANAN    000000000000000000000000000000000000000000000N0000004446571                                               2025123100                    
60000015962476MARIO ALBERTO FLOREZ000000000000000000000000000000000000000000000N0000015962476                                               2025123100                    
60001060587920YONATHAN  DE JESUS G000000000000000000000000000000000000000000000N0001060587920                                               2025123100                    
60000024907584MARIA NELLY RESTREPO000000000000000000000000000000000000000000000N0000024907584                                               2025123100                    
60001078178268JAMINTON MACHADO GOM000000000000000000000000000000000000000000000N0001078178268                                               2025123100                    
60000010004812BAUDIEL DE JESUS HIN000000000000000000000000000000000000000000000N0000010004812                                               2025123100                    
60000018598587SILVIO  GARCIA VALEN000000000000000000000000000000000000000000000N0000018598587                                               2025123100                    
60000043973955DEICY  JIMENA ORTIZ 000000000000000000000000000000000000000000000N0000043973955                                               2025123100                    
60000042137383SANDRA MILENA RESTRE000000000000000000000000000000000000000000000N0000042137383                                               2025123100                    
60001060588227CLAUDIA  PATRICIA  L000000000000000000000000000000000000000000000N0001060588227                                               2025123100                    
60001060589579NELSON EDWIN LENGUA 000000000000000000000000000000000000000000000N0001060589579                                               2025123100                    
60001088019056SAMUEL GARCIA TAPASC000000000000000000000000000000000000000000000N0001088019056                                               2025123100                    
60001088293446VICTOR ALFONSO MARIN000000000000000000000000000000000000000000000N0001088293446                                               2025123100                    
60001114091139LINELLY ACOSTA GAVIR000000000000000000000000000000000000000000000N0001114091139                                               2025123100                    
60000024528668LUZ MELIDA CALLE BER000000000000000000000000000000000000000000000N0000024528668                                               2025123100                    
60000015932773JOSE  JESUS GONZALEZ000000000000000000000000000000000000000000000N0000015932773                                               2025123100                    
60001060593480CRISTIAN CAMILO GUER000000000000000000000000000000000000000000000N0001060593480                                               2025123100                    
60001060593063LINDA  YESENIA MOTAT000000000000000000000000000000000000000000000N0001060593063                                               2025123100                    
60000009921016LUIS  ANIBAL ALVAREZ000000000000000000000000000000000000000000000N0000009921016                                               2025123100                    
60000004593141LUIS ALBERTO  AYALA 000000000000000000000000000000000000000000000N0000004593141                                               2025123100                    
60001088293736ALEX MAURICIO CARMON000000000000000000000000000000000000000000000N0001088293736                                               2025123100                    
60000008201088OMAR DARIO MAZO POSA000000000000000000000000000000000000000000000N0000008201088                                               2025123100                    
60001088238495LUCELLY   DUQUE ALAD000000000000000000000000000000000000000000000N0001088238495                                               2025123100                    
60000086047042FREDY CARVAJAL GODOY000000000000000000000000000000000000000000000N0000086047042                                               2025123100                    
60001117532159WILSON  GUTIERREZ  P000000000000000000000000000000000000000000000N0001117532159                                               2025123100                    
60000018602820JAIME  ALBERTO MOREN000000000000000000000000000000000000000000000N0000018602820                                               2025123100                    
60001115065624PAOLA ANDREA WALTERO000000000000000000000000000000000000000000000N0001115065624                                               2025123100                    
60001088246513DIANA LUCIA RAMIREZ 000000000000000000000000000000000000000000000N0001088246513                                               2025123100                    
60000007792500NORBERTO CARDONA ARI000000000000000000000000000000000000000000000N0000007792500                                               2025123100                    
60001060590003FERNANDO  DE JESUS O000000000000000000000000000000000000000000000N0001060590003                                               2025123100                    
60000010100282GUILLERMO ANTONIO LO000000000000000000000000000000000000000000000N0000010100282                                               2025123100                    
60001060649031MARY  LUZ RODRIGUEZ 000000000000000000000000000000000000000000000N0001060649031                                               2025123100                    
60000010132011GUILLERMO ALFONSO OS000000000000000000000000000000000000000000000N0000010132011                                               2025123100                    
60001088238696JHON FREDY CARVAJAL 000000000000000000000000000000000000000000000N0001088238696                                               2025123100                    
60000088193048ANTONIO  MARIA PEREZ000000000000000000000000000000000000000000000N0000088193048                                               2025123100                    
60000034050157MARIA VIRGELINA CARD000000000000000000000000000000000000000000000N0000034050157                                               2025123100                    
60000025024646LUZ ADRIANA CASTANO 000000000000000000000000000000000000000000000N0000025024646                                               2025123100                    
60000005882322JOSE VICENTE VERA   000000000000000000000000000000000000000000000N0000005882322                                               2025123100                    
60000009893764OLIVER DE JESUS LADI000000000000000000000000000000000000000000000N0000009893764                                               2025123100                    
60001088304309BRIAN STIVEN PEREZ B000000000000000000000000000000000000000000000N0001088304309                                               2025123100                    
60000010006395LUIS  FERNANDO BUENO000000000000000000000000000000000000000000000N0000010006395                                               2025123100                    
60001077478346BRAYAN STIVEN GUARIN000000000000000000000000000000000000000000000N0001077478346                                               2025123100                    
60001088002875EDWIN YESID AGUIRRE 000000000000000000000000000000000000000000000N0001088002875                                               2025123100                    
60000034043982OREALIS TOPA PEREZ  000000000000000000000000000000000000000000000N0000034043982                                               2025123100                    
60001088033196KEVIN  DANIEL DIAZ G000000000000000000000000000000000000000000000N0001088033196                                               2025123100                    
60000010010066JORGE  ALEXANDER VEG000000000000000000000000000000000000000000000N0000010010066                                               2025123100                    
60001088256464MARIA  FERNANDA GONZ000000000000000000000000000000000000000000000N0001088256464                                               2025123100                    
60000010014841CARLOS ALBERTO ORTIZ000000000000000000000000000000000000000000000N0000010014841                                               2025123100                    
60000075033938ORLANDO ALARCON  MAR000000000000000000000000000000000000000000000N0000075033938                                               2025123100                    
60001088319363GERMAN ANDRES CASTRI000000000000000000000000000000000000000000000N0001088319363                                               2025123100                    
60001088251017ARNOBE SUAREZ  GONZA000000000000000000000000000000000000000000000N0001088251017                                               2025123100                    
60000033915027JULIA ROSA QUINTERO 000000000000000000000000000000000000000000000N0000033915027                                               2025123100                    
60001004680902CAMILA ALEXANDRA LOP000000000000000000000000000000000000000000000N0001004680902                                               2025123100                    
60000010019975WALTER JOSE GARCIA R000000000000000000000000000000000000000000000N0000010019975                                               2025123100                    
60000018596906JOSE JULIAN ECHEVERR000000000000000000000000000000000000000000000N0000018596906                                               2025123100                    
60000042162513ADRIANA  MARIA LONDO000000000000000000000000000000000000000000000N0000042162513                                               2025123100                    
60000003377776CARLOS MARIO RESTREP000000000000000000000000000000000000000000000N0000003377776                                               2025123100                    
60001088341885DANIELA MEJIA  GOMEZ000000000000000000000000000000000000000000000N0001088341885                                               2025123100                    
60000004585341LUIS ADAN CORREA HER000000000000000000000000000000000000000000000N0000004585341                                               2025123100                    
60000042096194LUCELLY BETANCOUTH B000000000000000000000000000000000000000000000N0000042096194                                               2025123100                    
60000018604939EULER DE JESUS CASTA000000000000000000000000000000000000000000000N0000018604939                                               2025123100                    
60000015931378JOSE  ELIECER GANAN 000000000000000000000000000000000000000000000N0000015931378                                               2025123100                    
60001088268026JUAN CARLOS CASTANED000000000000000000000000000000000000000000000N0001088268026                                               2025123100                    
60000010142874MAURICIO DUQUE CLAVI000000000000000000000000000000000000000000000N0000010142874                                               2025123100                    
60001088016917HERNAN  STEVEN GOMEZ000000000000000000000000000000000000000000000N0001088016917                                               2025123100                    
60000024839873GLORIA ISABEL CASTAN000000000000000000000000000000000000000000000N0000024839873                                               2025123100                    
60001225090889BRAHIAN ANTONIO HINC000000000000000000000000000000000000000000000N0001225090889                                               2025123100                    
60000010101955GUILLERMO GUTIERREZ 000000000000000000000000000000000000000000000N0000010101955                                               2025123100                    
60001107090301BEATRIZ HELENA MARIN000000000000000000000000000000000000000000000N0001107090301                                               2025123100                    
60001088282572CESAR AUGUSTO BURITI000000000000000000000000000000000000000000000N0001088282572                                               2025123100                    
60001007144081JULIANA GALLEGO     000000000000000000000000000000000000000000000N0001007144081                                               2025123100                    
60000010109826JOSE EDISON GODOY LO000000000000000000000000000000000000000000000N0000010109826                                               2025123100                    
60000010069914JAIME LEON ZAPATA PU000000000000000000000000000000000000000000000N0000010069914                                               2025123100                    
60000094407321JOSE FERNANDO BETANC000000000000000000000000000000000000000000000N0000094407321                                               2025123100                    
60000030374336SANDRA  MILENA JARAM000000000000000000000000000000000000000000000N0000030374336                                               2025123100                    
60000017185323JOSE JESUS JIMENEZ V000000000000000000000000000000000000000000000N0000017185323                                               2025123100                    
60001093748608ALEXIS FERNANDO LEYT000000000000000000000000000000000000000000000N0001093748608                                               2025123100                    
60001060592154JUAN ANDRES TORRES S000000000000000000000000000000000000000000000N0001060592154                                               2025123100                    
60000000434406HECTOR CAMILO PEREZ 000000000000000000000000000000000000000000000N0000000434406                                               2025123100                    
60001061372388ANDERSON LEANDRO SAL000000000000000000000000000000000000000000000N0001061372388                                               2025123100                    
60000010080031MIGUEL ANTONIO MURIL000000000000000000000000000000000000000000000N0000010080031                                               2025123100                    
60000042011321MARTHA LORENA HENAO 000000000000000000000000000000000000000000000N0000042011321                                               2025123100                    
60001092910692FRANCY MILENA PINO C000000000000000000000000000000000000000000000N0001092910692                                               2025123100                    
60001055313917YESSICA ALEJANDRA GU000000000000000000000000000000000000000000000N0001055313917                                               2025123100                    
60000018507652OMAR DE JESUS ESCUDE000000000000000000000000000000000000000000000N0000018507652                                               2025123100                    
60001113311569JHON FABER CHICA MAR000000000000000000000000000000000000000000000N0001113311569                                               2025123100                    
60000007557043JOSE JAVIER CASTANED000000000000000000000000000000000000000000000N0000007557043                                               2025123100                    
60000094368524CARLOS ALDUBAR ALZAT000000000000000000000000000000000000000000000N0000094368524                                               2025123100                    
60000004577495JOSE HERNAN ARCILA H000000000000000000000000000000000000000000000N0000004577495                                               2025123100                    
60000010125369JAIRO YEPES         000000000000000000000000000000000000000000000N0000010125369                                               2025123100                    
60001060268995YENY YOANA RESTREPO 000000000000000000000000000000000000000000000N0001060268995                                               2025123100                    
60000094285820CESAR MARTINEZ PATIN000000000000000000000000000000000000000000000N0000094285820                                               2025123100                    
60000042073980BEATRIZ SEPULVEDA ME000000000000000000000000000000000000000000000N0000042073980                                               2025123100                    
60000007512987LUIS  ANIBAL ANDICA 000000000000000000000000000000000000000000000N0000007512987                                               2025123100                    
60001054920978JOHN JAIRO VILLADA M000000000000000000000000000000000000000000000N0001054920978                                               2025123100                    
60001088285544YEISY YULIANA CORREA000000000000000000000000000000000000000000000N0001088285544                                               2025123100                    
60001002802620JORGE IVAN GRAJALES 000000000000000000000000000000000000000000000N0001002802620                                               2025123100                    
60001093221596RICHAR GONZALEZ GALE000000000000000000000000000000000000000000000N0001093221596                                               2025123100                    
60001088034803ANGIE VANESSA GOMEZ 000000000000000000000000000000000000000000000N0001088034803                                               2025123100                    
60000015907984JUAN  CARLOS LOPEZ G000000000000000000000000000000000000000000000N0000015907984                                               2025123100                    
60000042117793ANGELA MARIA TABARES000000000000000000000000000000000000000000000N0000042117793                                               2025123100                    
60000004520175ALEJANDRO MORENO PAL000000000000000000000000000000000000000000000N0000004520175                                               2025123100                    
60000010000878JHON FADER TORO ORTI000000000000000000000000000000000000000000000N0000010000878                                               2025123100                    
60001093214352EDIER FABER FORONDA 000000000000000000000000000000000000000000000N0001093214352                                               2025123100                    
60000093436568JOHN  JAIRO ISAZA RI000000000000000000000000000000000000000000000N0000093436568                                               2025123100                    
60000081740733DIEGO EDISON MORA GA000000000000000000000000000000000000000000000N0000081740733                                               2025123100                    
60000009870196JUAN  DIEGO MESA  RA000000000000000000000000000000000000000000000N0000009870196                                               2025123100                    
60000026294688MARIA LIBRADA NAGLES000000000000000000000000000000000000000000000N0000026294688                                               2025123100                    
60000010018976LUIS CARLOS BATERO M000000000000000000000000000000000000000000000N0000010018976                                               2025123100                    
60000016055412JULIAN ANDRES MARIN 000000000000000000000000000000000000000000000N0000016055412                                               2025123100                    
60001093214953JULIAN ANDRES RENDON000000000000000000000000000000000000000000000N0001093214953                                               2025123100                    
60001088305473JUAN  PABLO GARCIA A000000000000000000000000000000000000000000000N0001088305473                                               2025123100                    
60000016052594JOHN JAIRO VERGARA A000000000000000000000000000000000000000000000N0000016052594                                               2025123100                    
60001060267694VICTOR ALFONSO RESTR000000000000000000000000000000000000000000000N0001060267694                                               2025123100                    
60000075158769EDWIN JAVIER HOYOS G000000000000000000000000000000000000000000000N0000075158769                                               2025123100                    
60000042148563SANDRA MILENA REYES 000000000000000000000000000000000000000000000N0000042148563                                               2025123100                    
60000011523595WILSON ORTIZ GARCIA 000000000000000000000000000000000000000000000N0000011523595                                               2025123100                    
60001110528847NOHORA NATALIA PAVIA000000000000000000000000000000000000000000000N0001110528847                                               2025123100                    
60000010027058GUSTAVO ADOLFO BELTR000000000000000000000000000000000000000000000N0000010027058                                               2025123100                    
60001088237710LADY JOHANA HERNANDE000000000000000000000000000000000000000000000N0001088237710                                               2025123100                    
60001088326305CRISTHIAN DAVID CARD000000000000000000000000000000000000000000000N0001088326305                                               2025123100                    
60001088349753SANTIAGO AGUDELO CAR000000000000000000000000000000000000000000000N0001088349753                                               2025123100                    
60001088027830ADRIAN ERNESTO DIAZ 000000000000000000000000000000000000000000000N0001088027830                                               2025123100                    
60000016054187CARLOS ALBERTO ARCIL000000000000000000000000000000000000000000000N0000016054187                                               2025123100                    
60000010140040LEONARDO RESTREPO VA000000000000000000000000000000000000000000000N0000010140040                                               2025123100                    
60000028980471MARINELLA BONILLA PI000000000000000000000000000000000000000000000N0000028980471                                               2025123100                    
60000025247596MARIA GLADIS JARAMIL000000000000000000000000000000000000000000000N0000025247596                                               2025123100                    
60000042078245MARIA NANCY BEDOYA O000000000000000000000000000000000000000000000N0000042078245                                               2025123100                    
60001088297674IRINA PIEDAD VELASQU000000000000000000000000000000000000000000000N0001088297674                                               2025123100                    
60000010133194JULIO CESAR VALDERRA000000000000000000000000000000000000000000000N0000010133194                                               2025123100                    
60000010117658ALCIDES DE JESUS GUE000000000000000000000000000000000000000000000N0000010117658                                               2025123100                    
60001088007712MARIA MAGDALENA SILV000000000000000000000000000000000000000000000N0001088007712                                               2025123100                    
60000005994462JOSE DARIO GONZALEZ 000000000000000000000000000000000000000000000N0000005994462                                               2025123100                    
60000010107379WILLIAM MOSQUERA MOS000000000000000000000000000000000000000000000N0000010107379                                               2025123100                    
60001060269553OSCAR JHONIER TANGAR000000000000000000000000000000000000000000000N0001060269553                                               2025123100                    
60001060269345HECTOR JUNIOR FLOREZ000000000000000000000000000000000000000000000N0001060269345                                               2025123100                    
60001059699760JAIRO EMILIO GUERRER000000000000000000000000000000000000000000000N0001059699760                                               2025123100                    
60000008312736EFREN DE JESUS ORTIZ000000000000000000000000000000000000000000000N0000008312736                                               2025123100                    
60001002955293LUZ MIRIAM QUINTERO 000000000000000000000000000000000000000000000N0001002955293                                               2025123100                    
60000009695018JUAN  DAVID VELEZ RI000000000000000000000000000000000000000000000N0000009695018                                               2025123100                    
60000042012225MARTHA CECILIA VARON000000000000000000000000000000000000000000000N0000042012225                                               2025123100                    
60000010131865LUIS FERNANDO OROZCO000000000000000000000000000000000000000000000N0000010131865                                               2025123100                    
60001087989877LILIANA ANDREA MONTO000000000000000000000000000000000000000000000N0001087989877                                               2025123100                    
60000009869570GIOVANI LADINO VALEN000000000000000000000000000000000000000000000N0000009869570                                               2025123100                    
60000025192415ROSALBA VARGAS BOTER000000000000000000000000000000000000000000000N0000025192415                                               2025123100                    
60001088246196JUAN DAVID VARGAS VA000000000000000000000000000000000000000000000N0001088246196                                               2025123100                    
60001088336527LUISA FERNANDA GOMEZ000000000000000000000000000000000000000000000N0001088336527                                               2025123100                    
60001088008445WILLIAM  LOPEZ GONZA000000000000000000000000000000000000000000000N0001088008445                                               2025123100                    
60001087989136JULIAN ANDRES CARDON000000000000000000000000000000000000000000000N0001087989136                                               2025123100                    
60001110502033LADY JOHANNA CERQUER000000000000000000000000000000000000000000000N0001110502033                                               2025123100                    
60000065767058RUBY  ESPERANZA CAST000000000000000000000000000000000000000000000N0000065767058                                               2025123100                    
60001093216191LUIS  ALBERTO MORALE000000000000000000000000000000000000000000000N0001093216191                                               2025123100                    
60000016053027RUBEN DARIO BLANDON 000000000000000000000000000000000000000000000N0000016053027                                               2025123100                    
60000016052487ARTURO CASTANEDA    000000000000000000000000000000000000000000000N0000016052487                                               2025123100                    
60000010020303HENRY ALBERTO  SOTO 000000000000000000000000000000000000000000000N0000010020303                                               2025123100                    
60001088013929MICHAEL STIVENS SOTO000000000000000000000000000000000000000000000N0001088013929                                               2025123100                    
60098013066540CRISTIAN CAMILO BEDO000000000000000000000000000000000000000000000N0098013066540                                               2025123100                    
60000017690046JOHN ALEXANDER SANCH000000000000000000000000000000000000000000000N0000017690046                                               2025123100                    
60000009993194JOSE DE JESUS YEPES 000000000000000000000000000000000000000000000N0000009993194                                               2025123100                    
60001088017941JHONATAN ALEXANDER S000000000000000000000000000000000000000000000N0001088017941                                               2025123100                    
60000003036116BALTASAR LOSADA     000000000000000000000000000000000000000000000N0000003036116                                               2025123100                    
60000080039593HECTOR RODRIGO GAONA000000000000000000000000000000000000000000000N0000080039593                                               2025123100                    
60000018521759RAFAEL ESTEBAN  ACER000000000000000000000000000000000000000000000N0000018521759                                               2025123100                    
60001088007236VICTOR ALFONSO MARIN000000000000000000000000000000000000000000000N0001088007236                                               2025123100                    
60000075040328JOHN JAIRO CALLE CAR000000000000000000000000000000000000000000000N0000075040328                                               2025123100                    
60000004430767HERNANDO DE JESUS PA000000000000000000000000000000000000000000000N0000004430767                                               2025123100                    
60000070504724SAMUEL LEONARDO ROJA000000000000000000000000000000000000000000000N0000070504724                                               2025123100                    
60000004336625JOSE  ARLES AGUIRRE 000000000000000000000000000000000000000000000N0000004336625                                               2025123100                    
60000003498512CARLOS ENRIQUE GONZA000000000000000000000000000000000000000000000N0000003498512                                               2025123100                    
60000042018838LEYDI CAROLINA SANCH000000000000000000000000000000000000000000000N0000042018838                                               2025123100                    
60000009862025RAUL ANDRES MUNOZ RO000000000000000000000000000000000000000000000N0000009862025                                               2025123100                    
60000010103462JOSE ALBERTO MARTINE000000000000000000000000000000000000000000000N0000010103462                                               2025123100                    
60000016113905CARLOS ROGILDO HERRE000000000000000000000000000000000000000000000N0000016113905                                               2025123100                    
60000042159790LADY JOHANA TABORDA 000000000000000000000000000000000000000000000N0000042159790                                               2025123100                    
60000015957901CARLOS AUGUSTO GALVI000000000000000000000000000000000000000000000N0000015957901                                               2025123100                    
60001004670665ANDRES FELIPE LOPEZ 000000000000000000000000000000000000000000000N0001004670665                                               2025123100                    
60000016834777ARNOLDO GUEGIA CRUZ 000000000000000000000000000000000000000000000N0000016834777                                               2025123100                    
60000010115622JOSE FABIAN VALENCIA000000000000000000000000000000000000000000000N0000010115622                                               2025123100                    
60000009872663GONZALO  ALBERTO RIO000000000000000000000000000000000000000000000N0000009872663                                               2025123100                    
60000025181878SANDRA MILENA CAMPIN000000000000000000000000000000000000000000000N0000025181878                                               2025123100                    
60001088316574MAICON STIVEN JIMENE000000000000000000000000000000000000000000000N0001088316574                                               2025123100                    
60000009865247CARLOS ANDRES MONTAN000000000000000000000000000000000000000000000N0000009865247                                               2025123100                    
60001087994257JOSE FERNANDO GRAJAL000000000000000000000000000000000000000000000N0001087994257                                               2025123100                    
60000010028614HERNAN DARIO GOMEZ A000000000000000000000000000000000000000000000N0000010028614                                               2025123100                    
60001088274402LUIS CARLOS MARIN AL000000000000000000000000000000000000000000000N0001088274402                                               2025123100                    
60000000487431ANTONIO MIGUEL MACIA000000000000000000000000000000000000000000000N0000000487431                                               2025123100                    
60000034000129CLAUDIA MARCELA CAST000000000000000000000000000000000000000000000N0000034000129                                               2025123100                    
60001093212356YORMAN GIRALDO GOMEZ000000000000000000000000000000000000000000000N0001093212356                                               2025123100                    
60000010275397ARLEX SOTO HENAO    000000000000000000000000000000000000000000000N0000010275397                                               2025123100                    
60000018514753VICTOR RAUL CARDONA 000000000000000000000000000000000000000000000N0000018514753                                               2025123100                    
60000010086677NORBERTO DE JESUS RO000000000000000000000000000000000000000000000N0000010086677                                               2025123100                    
60000010109190ORLANDO TABORDA MIRA000000000000000000000000000000000000000000000N0000010109190                                               2025123100                    
60000041518785MARIA MAGOLA CIFUENT000000000000000000000000000000000000000000000N0000041518785                                               2025123100                    
60000004512763EDILSON RAMIREZ LOND000000000000000000000000000000000000000000000N0000004512763                                               2025123100                    
60001006291808JOHN BARDY ALZATE AT000000000000000000000000000000000000000000000N0001006291808                                               2025123100                    
60001088017975JORGE IVAN CASTANO G000000000000000000000000000000000000000000000N0001088017975                                               2025123100                    
60000042091658LILIANA ORREGO MARIN000000000000000000000000000000000000000000000N0000042091658                                               2025123100                    
60001088276470JOHON JAIRO DIAZ CAS000000000000000000000000000000000000000000000N0001088276470                                               2025123100                    
60000010138419NORBERTO ANDICA GANA000000000000000000000000000000000000000000000N0000010138419                                               2025123100                    
60000010004077JHON JAIRO ROJAS GIL000000000000000000000000000000000000000000000N0000010004077                                               2025123100                    
60001088007553JONATAN DUQUE RUIZ  000000000000000000000000000000000000000000000N0001088007553                                               2025123100                    
60001088301400MIGUEL ANGEL ARIAS C000000000000000000000000000000000000000000000N0001088301400                                               2025123100                    
60001060269114JUAN CARLOS LOPEZ ZA000000000000000000000000000000000000000000000N0001060269114                                               2025123100                    
60000042731162MARIA ARGENSOLA BUIT000000000000000000000000000000000000000000000N0000042731162                                               2025123100                    
60000016203558JOAQUIN SARMIENTO CO000000000000000000000000000000000000000000000N0000016203558                                               2025123100                    
60000075040369DIEGO ARTURO GONZALE000000000000000000000000000000000000000000000N0000075040369                                               2025123100                    
60000010013770HERNAN  PEREZ RENDON000000000000000000000000000000000000000000000N0000010013770                                               2025123100                    
60000004520232JUAN  PABLO ARIAS  G000000000000000000000000000000000000000000000N0000004520232                                               2025123100                    
60000009871785YAMID HERNANDEZ ANTE000000000000000000000000000000000000000000000N0000009871785                                               2025123100                    
60000080025762DIEGO BENAVIDEZ NOTI000000000000000000000000000000000000000000000N0000080025762                                               2025123100                    
60001088289013JULIAN ANDRES MEZA R000000000000000000000000000000000000000000000N0001088289013                                               2025123100                    
60001053850285NICOLL JOHANA GIRALD000000000000000000000000000000000000000000000N0001053850285                                               2025123100                    
60000009871142SAMUEL CARDONA BLAND000000000000000000000000000000000000000000000N0000009871142                                               2025123100                    
60000041872045MONICA  ANDREA GARCI000000000000000000000000000000000000000000000N0000041872045                                               2025123100                    
60001060268686MARIA YULIANA MARTIN000000000000000000000000000000000000000000000N0001060268686                                               2025123100                    
60001060268952ALEJANDRO CASTANO OC000000000000000000000000000000000000000000000N0001060268952                                               2025123100                    
60000001255654MODESTO ARBOLEDA CAS000000000000000000000000000000000000000000000N0000001255654                                               2025123100                    
60001087551746JOSE MEIFER LLOREDA 000000000000000000000000000000000000000000000N0001087551746                                               2025123100                    
60001088283536YEFERSSON AGUDELO GU000000000000000000000000000000000000000000000N0001088283536                                               2025123100                    
60000024946702MARIA NOELIA RAMIREZ000000000000000000000000000000000000000000000N0000024946702                                               2025123100                    
60001060268169VICTOR ANDRES RAMIRE000000000000000000000000000000000000000000000N0001060268169                                               2025123100                    
60000009845017JULIO ANDRES GALLEGO000000000000000000000000000000000000000000000N0000009845017                                               2025123100                    
60000015919827BERNARDO GONZALEZ AC000000000000000000000000000000000000000000000N0000015919827                                               2025123100                    
60001093226392LUIS  MIGUEL ECHEVER000000000000000000000000000000000000000000000N0001093226392                                               2025123100                    
60000005996939LUIS LISANDRO CALDER000000000000000000000000000000000000000000000N0000005996939                                               2025123100                    
60001088004891VICTOR ALFONSO OROZC000000000000000000000000000000000000000000000N0001088004891                                               2025123100                    
60001110525132JHONATAN  ALEXANDER 000000000000000000000000000000000000000000000N0001110525132                                               2025123100                    
60000014895995HERIBERTO   JIMENEZ 000000000000000000000000000000000000000000000N0000014895995                                               2025123100                    
60000051836911LUZ  MERY  MONTOYA R000000000000000000000000000000000000000000000N0000051836911                                               2025123100                    
60000015923256JULIAN  ANDRES BANOL000000000000000000000000000000000000000000000N0000015923256                                               2025123100                    
60000030344029ELIZABETH ARISTIZABA000000000000000000000000000000000000000000000N0000030344029                                               2025123100                    
60001088340102STEVEN CAMPEON GOMEZ000000000000000000000000000000000000000000000N0001088340102                                               2025123100                    
60000010027634JORGE  ALBERTO CASTR000000000000000000000000000000000000000000000N0000010027634                                               2025123100                    
60000042163589CLAUDIA MARIA RIVERA000000000000000000000000000000000000000000000N0000042163589                                               2025123100                    
60000003159423GERARDO JOSE LONDONO000000000000000000000000000000000000000000000N0000003159423                                               2025123100                    
60001059712028JHONNY ALEXANDER UCH000000000000000000000000000000000000000000000N0001059712028                                               2025123100                    
60000004346821JAIRO DE JESUS VALEN000000000000000000000000000000000000000000000N0000004346821                                               2025123100                    
60001048016446LEON DARIO GONZALEZ 000000000000000000000000000000000000000000000N0001048016446                                               2025123100                    
60000019277296HERNAN  DE JESUS  RI000000000000000000000000000000000000000000000N0000019277296                                               2025123100                    
60001060592387HAMILTON FABIANNY LA000000000000000000000000000000000000000000000N0001060592387                                               2025123100                    
60000093357698ROOSEVELT ENRIQUE ME000000000000000000000000000000000000000000000N0000093357698                                               2025123100                    
60000042097415SANDRA BIBIANA RIOS 000000000000000000000000000000000000000000000N0000042097415                                               2025123100                    
60001058230244JHON FREDY BUENO GAN000000000000000000000000000000000000000000000N0001058230244                                               2025123100                    
60001088026452JUAN  GUILLERMO ARAN000000000000000000000000000000000000000000000N0001088026452                                               2025123100                    
60000015956393DORIAN  LONDONO RAVE000000000000000000000000000000000000000000000N0000015956393                                               2025123100                    
60000018592754CARLOS ALBERTO ARIAS000000000000000000000000000000000000000000000N0000018592754                                               2025123100                    
60000042135368CLAUDIA MILENA  SALI000000000000000000000000000000000000000000000N0000042135368                                               2025123100                    
60001110487519MAYERLY  ANDREA LENI000000000000000000000000000000000000000000000N0001110487519                                               2025123100                    
60001060591308LAURA MILED VELEZ EC000000000000000000000000000000000000000000000N0001060591308                                               2025123100                    
60000016229175ROBERTO  ARIAS  ARIA000000000000000000000000000000000000000000000N0000016229175                                               2025123100                    
60000007363621FABIO DIOMAR GUTIERR000000000000000000000000000000000000000000000N0000007363621                                               2025123100                    
60000010143809JESUS ERNESTO SIERRA000000000000000000000000000000000000000000000N0000010143809                                               2025123100                    
60000018515870DUPARFAY VELAZQUEZ C000000000000000000000000000000000000000000000N0000018515870                                               2025123100                    
60001110445121MONICA  DEL PILAR UR000000000000000000000000000000000000000000000N0001110445121                                               2025123100                    
60001110524027ANGELA  BLANCO CHILA000000000000000000000000000000000000000000000N0001110524027                                               2025123100                    
60001111193216YURI ADRIANA MENDEZ 000000000000000000000000000000000000000000000N0001111193216                                               2025123100                    
60001088328644GERSON REINERIO PALA000000000000000000000000000000000000000000000N0001088328644                                               2025123100                    
60001014197257ANDRES FELIPE JIMENE000000000000000000000000000000000000000000000N0001014197257                                               2025123100                    
60000093366540RUBEN QUINTERO OSORI000000000000000000000000000000000000000000000N0000093366540                                               2025123100                    
60000006191827JOSE  WILLIAM NARANJ000000000000000000000000000000000000000000000N0000006191827                                               2025123100                    
60000014450477ANTONIO  MARIA  CARD000000000000000000000000000000000000000000000N0000014450477                                               2025123100                    
60001060266488CARLOS  MARIO GARCIA000000000000000000000000000000000000000000000N0001060266488                                               2025123100                    
60001088004774YHONNI RICARDO FLORE000000000000000000000000000000000000000000000N0001088004774                                               2025123100                    
60001073321045HECTOR FABIO FRANCO 000000000000000000000000000000000000000000000N0001073321045                                               2025123100                    
60000024717823DORIS VIVIANA ORTIZ 000000000000000000000000000000000000000000000N0000024717823                                               2025123100                    
60001088261100DIANA MARCELA DURANG000000000000000000000000000000000000000000000N0001088261100                                               2025123100                    
60000018521901JOHN  FREDY JIMENEZ 000000000000000000000000000000000000000000000N0000018521901                                               2025123100                    
60001093212282SORAYA VALENCIA  COR000000000000000000000000000000000000000000000N0001093212282                                               2025123100                    
60000016054543JORGE  TULIO RIOS  R000000000000000000000000000000000000000000000N0000016054543                                               2025123100                    
60000010192348ALIRIO DE JESUS DIAZ000000000000000000000000000000000000000000000N0000010192348                                               2025123100                    
60000030583154YUDIS NORENA SALGADO000000000000000000000000000000000000000000000N0000030583154                                               2025123100                    
60000006559379OSCAR ANTONIO LORZA 000000000000000000000000000000000000000000000N0000006559379                                               2025123100                    
60001059705695ANDRES FELIPE TAPASC000000000000000000000000000000000000000000000N0001059705695                                               2025123100                    
60000016689225JUAN  CARLOS CANDAMI000000000000000000000000000000000000000000000N0000016689225                                               2025123100                    
60000025038391MARIA  CONSUELO  LAD000000000000000000000000000000000000000000000N0000025038391                                               2025123100                    
60000094473324JAVIER  ALFONSO SALA000000000000000000000000000000000000000000000N0000094473324                                               2025123100                    
60001061703632MARIA JOHANNA MUNOZ 000000000000000000000000000000000000000000000N0001061703632                                               2025123100                    
60000042086056LUZ MARINA QUICENO B000000000000000000000000000000000000000000000N0000042086056                                               2025123100                    
60000010163493SALOMON  TOVAR  VARG000000000000000000000000000000000000000000000N0000010163493                                               2025123100                    
60000016234657WILLIAM   PIEDRAHITA000000000000000000000000000000000000000000000N0000016234657                                               2025123100                    
60000004446371DANIEL OSPINA GIRALD000000000000000000000000000000000000000000000N0000004446371                                               2025123100                    
60001088008112EULISES DIAZ  MARIN 000000000000000000000000000000000000000000000N0001088008112                                               2025123100                    
60000065761903ALCIRA  FLOREZ RODRI000000000000000000000000000000000000000000000N0000065761903                                               2025123100                    
60000010545399GUILLERMO ALBERTO AG000000000000000000000000000000000000000000000N0000010545399                                               2025123100                    
60000075056752HECTOR FABIO USMA VA000000000000000000000000000000000000000000000N0000075056752                                               2025123100                    
60000028977294MARTHA LUCIA BONILLA000000000000000000000000000000000000000000000N0000028977294                                               2025123100                    
60000036310681LUZ MELIDA MONTELEGR000000000000000000000000000000000000000000000N0000036310681                                               2025123100                    
60000015933006WILDAN  DE  JESUS LE000000000000000000000000000000000000000000000N0000015933006                                               2025123100                    
60000089006163JUAN  DIEGO ECHEVERR000000000000000000000000000000000000000000000N0000089006163                                               2025123100                    
60001075295590JHOHAN ALBERTO CABRE000000000000000000000000000000000000000000000N0001075295590                                               2025123100                    
60001075278983JAVIER ANDRES VARGAS000000000000000000000000000000000000000000000N0001075278983                                               2025123100                    
60000018514786JHON JAMES PARRA CAS000000000000000000000000000000000000000000000N0000018514786                                               2025123100                    
60000051818727LUZ  MERY  OCHOA    000000000000000000000000000000000000000000000N0000051818727                                               2025123100                    
60001110576160ANDREA JULIETH CARO 000000000000000000000000000000000000000000000N0001110576160                                               2025123100                    
60001088307405SANTIAGO QUINTERO VE000000000000000000000000000000000000000000000N0001088307405                                               2025123100                    
60000055164652CAROLINA  GRIJALBA T000000000000000000000000000000000000000000000N0000055164652                                               2025123100                    
60000094551741JUAN GABRIEL MORALES000000000000000000000000000000000000000000000N0000094551741                                               2025123100                    
60000010171451JORGE  ENRIQUE ORTIZ000000000000000000000000000000000000000000000N0000010171451                                               2025123100                    
60000010112070JORGE  HERNAN SALAZA000000000000000000000000000000000000000000000N0000010112070                                               2025123100                    
60000004517267EMERSON  FRANCO  ZAP000000000000000000000000000000000000000000000N0000004517267                                               2025123100                    
60000083180484HUMBERTO   SANDOVAL 000000000000000000000000000000000000000000000N0000083180484                                               2025123100                    
60000014258008EULOGIO ALDANA  MORA000000000000000000000000000000000000000000000N0000014258008                                               2025123100                    
60000014835914MICHAEL ANTONIO MONT000000000000000000000000000000000000000000000N0000014835914                                               2025123100                    
60000026512034MARIA DUPERLY CHAVEZ000000000000000000000000000000000000000000000N0000026512034                                               2025123100                    
60001105784518EDUARD GUTIERREZ AGU000000000000000000000000000000000000000000000N0001105784518                                               2025123100                    
60000098669602CARLOS MARIO IDARRAG000000000000000000000000000000000000000000000N0000098669602                                               2025123100                    
60000026159692LUZ MARINA ALVAREZ C000000000000000000000000000000000000000000000N0000026159692                                               2025123100                    
60001059708876CARMEN VIVIANA VANEG000000000000000000000000000000000000000000000N0001059708876                                               2025123100                    
60000010127010JORGE ALBERTO  JARAM000000000000000000000000000000000000000000000N0000010127010                                               2025123100                    
60000010127672JORGE ORLANDO MARTIN000000000000000000000000000000000000000000000N0000010127672                                               2025123100                    
60000015919826LUIS ANIBAL HENAO CI000000000000000000000000000000000000000000000N0000015919826                                               2025123100                    
60000070112496ALVARO ARTURO QUEVED000000000000000000000000000000000000000000000N0000070112496                                               2025123100                    
60000010124653JOSE HAROLD ARANGO G000000000000000000000000000000000000000000000N0000010124653                                               2025123100                    
60001059697197SERGIO  DAVID GUERRE000000000000000000000000000000000000000000000N0001059697197                                               2025123100                    
60001115081908DINA MARCELA BURITIC000000000000000000000000000000000000000000000N0001115081908                                               2025123100                    
60001088288424LEIDY  VIVIANA MARTI000000000000000000000000000000000000000000000N0001088288424                                               2025123100                    
60000038256593DORIS MEDINA MORENO 000000000000000000000000000000000000000000000N0000038256593                                               2025123100                    
60000071773143ALVARO ALEXANDER QUE000000000000000000000000000000000000000000000N0000071773143                                               2025123100                    
60000094420240DUBAN DE JESUS OSORI000000000000000000000000000000000000000000000N0000094420240                                               2025123100                    
60001059694886JAIVER ALBERTO TABAR000000000000000000000000000000000000000000000N0001059694886                                               2025123100                    
60000002834777ORLANDO AVILES ZARAT000000000000000000000000000000000000000000000N0000002834777                                               2025123100                    
60000005843177OMAR  QUEVEDO BARRER000000000000000000000000000000000000000000000N0000005843177                                               2025123100                    
